:103C000011241FBECFE5D4E0DEBFCDBF10E0A0E69B
:103C1000B0E001C01D92A03EB107E1F70E94321E44
:103C20000C94E01F0C94141E08955D9BFECF81E45C
:103C30008CB95D9BFECF86E58CB95D9BFECF82E59E
:103C40008CB95D9BFECF82E48CB95D9BFECF8FE487
:103C50008CB95D9BFECF8FE48CB95D9BFECF84E574
:103C60008CB908952F923F924F925F926F927F92FC
:103C70008F929F92AF92BF92CF92DF92EF92FF927C
:103C80000F931F93CF93DF93959A8D9AF894A895ED
:103C900088E10FB6F89481BD11BC0FBE8F98979A3A
:103CA00010BC99E199B98AB986E880BD00E010E0BE
:103CB000EE24FF24C0E2DEE45F9B03C08CB18335B9
:103CC00079F021E00039120728F0979895988D989F
:103CD000F70109950F5F1F4FCE010197F1F7ECCF68
:103CE0000E94151E5524AA24BB24ADE0CA2EF3E081
:103CF0004F2EE8E12E2E312C5F9BFECF9CB19136EA
:103D000021F45D9BFECF69E52EC1913479F45F9B70
:103D1000FECF9CB15F9BFECF8CB15D9BFECF792E19
:103D20006624A82EBB24A628B7280DC1923659F4C4
:103D30005D9BFECF89E58CB95D9BFECF1CB85D9B7A
:103D4000FECFE0E81EC1923409F06CC05F9BFECF4D
:103D50008CB15F9BFECFDCB05F9BFECF2CB180E0CF
:103D6000E0E6F0E08D1510F09FEF03C05F9BFECF03
:103D70009CB191938F5F8038A9F7F5E75F1609F042
:103D80004EC0263409F034C0750100E010E0EE0C9E
:103D9000FF1C001F111FA8019701A0E6B0E08C9145
:103DA00090E011969C901197882488299929129661
:103DB00061E0F9010C0160935700E89511242E5F32
:103DC0003F4F4F4F5F4F8EEFD80E49F765E0F70139
:103DD00060935700E89507B600FCFDCF81E1809322
:103DE0005700E8955695479537952795590114C082
:103DF000253491F4FD2C8501C0E6D0E06991C8011D
:103E00000E94D31F0F5F1F4FFA94C1F7DA948D2DD4
:103E100090E00196A80EB91E5D9BFECF94C05D9BFD
:103E2000FECF7EC0973609F03DC05F9BFECF8CB1C0
:103E30005F9BFECFFCB05F9BFECF8CB18634E1F47C
:103E4000C501A0E0B0E0880F991FAA1FBB1FFC01AD
:103E5000259134915D9BFECF2CB95D9BFECF3CB983
:103E60000296A11DB11DEEEFFE0E89F7B695A7953E
:103E7000979587955C0140CF853409F03DCFEF2CB5
:103E80008501C8010E94CB1F5D9BFECF8CB90F5FDF
:103E90001F4FEA94B1F7FA948F2D90E00196A80E87
:103EA000B91E2ACF9536C1F4F5E75F1691F4E0E02C
:103EB000F0E040925700E89507B600FCFDCFE058CF
:103EC000FF4F2CE3E030F207A1F761E16093570068
:103ED000E8955D9BFECF37C0953451F48CE00FB66A
:103EE000F894A89521BC0FBE81BD5D9BFECF2BC071
:103EF000903519F45D9BFECF26C09C3419F45D9B70
:103F0000FECF21C0903721F45D9BFECFE3E539C0A1
:103F1000943741F45D9BFECFF5E7FCB95D9BFECF86
:103F20001CB8EACE892F8857823030F45F9BFECFD1
:103F30008CB15D9BFECF07C0943539F45F9BFECFFB
:103F40005CB05D9BFECFCCB8D7CE933519F40E9400
:103F5000151ED2CE963549F45D9BFECF20E32CB9D9
:103F60005D9BFECF68E36CB9C7CE933761F45D9B70
:103F7000FECF4CB85D9BFECF84E98CB95D9BFECF34
:103F8000EEE1ECB9B9CE9B3109F4B6CE5D9BFECF24
:103F9000FFE3FCB9B1CEE199FECF9FBB8EBBE09AA7
:103FA00099278DB30895262FE199FECF9FBB8EBB35
:103FB0002DBB0FB6F894E29AE19A0FBE01960895D0
:043FC000F894FFCFA3
:0400000300003C00BD
:00000001FF
