:100000000C943B000C9458000C9458000C9458002D
:100010000C9458000C9458000C9458000C94580000
:100020000C9458000C9458000C9458000C945800F0
:100030000C9458000C9458000C9458000C945800E0
:100040000C9458000C9458000C9458000C945800D0
:100050000C9458000C9458000C9458000C945800C0
:100060000C9458000C945800400100010D011E0131
:10007000470153012A0111241FBECFEFD8E0DEBF94
:10008000CDBF11E0A0E0B1E0E2EBF3E002C00590EB
:100090000D92A036B107D9F711E0A0E6B1E001C09A
:1000A0001D92A736B107E1F70E948B010C94D7018E
:1000B0000C94000080B7806880BF259A2D9888B185
:1000C000806388B987B18F7C87B980E88093B80056
:1000D0001092B9007894089584EA8093BC008091CE
:1000E000BC0087FFFCCF089584E98093BC0008958D
:1000F000880F8093BB0084E88093BC008091BC0093
:1001000087FFFCCF08958093BB0084E88093BC00F8
:100110008091BC0087FFFCCF0895282F90913F016C
:10012000807F862B990F990F990F982B892F8460C8
:100130008093BB0084E88093BC008091BC0087FF63
:10014000FCCF9093BB0084E88093BC008091BC00FE
:1001500087FFFCCF80913F01880F880F880F862B87
:10016000922F9295907F982B892F84608093BB006B
:1001700084E88093BC008091BC0087FFFCCF909303
:10018000BB0084E88093BC008091BC0087FFFCCF5B
:10019000089590913F01807F862B990F990F990FB9
:1001A000982B892F84608093BB0084E88093BC00E7
:1001B0008091BC0087FFFCCF9093BB0084E88093C4
:1001C000BC008091BC0087FFFCCF08950F931F9364
:1001D00084EA8093BC008091BC0087FFFCCF8EE452
:1001E0008093BB0084E88093BC008091BC0087FFB3
:1001F000FCCF80E360E00E94C90000E21EE4C80179
:100200000197F1F780E260E00E94C90088E260E0B7
:100210000E948D00C8010197F1F788E060E00E941C
:100220008D00C8010197F1F781E060E00E948D0028
:10023000C8010197F1F786E060E00E948D008CE034
:1002400060E00E948D0084E98093BC001F910F91B3
:100250000895EF92FF921F93DF93CF9300D000D0C9
:10026000CDB7DEB7982F7A0184EA8093BC008091E5
:10027000BC0087FFFCCF8EE48093BB0084E88093B2
:10028000BC008091BC0087FFFCCF198280E48A8388
:1002900084E18B8384E58C836058FE01E90FF11DB6
:1002A0008181860F60E00E948D0010E004C061E053
:1002B0000E948D001F5FF701E10FF11D80818823EF
:1002C000B1F784E98093BC000F900F900F900F90CE
:1002D000CF91DF911F91FF90EF90089584EA809372
:1002E000BC008091BC0087FFFCCF8EE48093BB00F4
:1002F00084E88093BC008091BC0087FFFCCF81E044
:1003000060E00E948D0080E29EE40197F1F784E9AD
:100310008093BC0008950E945A000E94E60080ED80
:1003200097E020E931E0F9013197F1F70197D9F72A
:1003300084EF91E020E931E0F9013197F1F701977D
:10034000D9F780E063E040E051E00E94290181E0BC
:1003500061E04DE051E00E94290183E061E04EE15F
:1003600051E00E94290180E593EC20E931E0F90198
:100370003197F1F70197D9F70E946E0180E060E0B4
:100380004AE251E00E94290120E931E02D9A88E8F3
:1003900093E1F9013197F1F70197D9F72D9888E8A2
:1003A00093E1F9013197F1F70197D9F7EFCFF8947D
:0203B000FFCF7D
:1003B2005961726F736C6176736B6979004245564D
:1003C200455241474520464143544F5259005374C8
:1003D200726F62652076312E30003031323334351F
:1003E200363738393031323334353637383900011F
:1003F200CEF8E8E1EAE000C2EEE7E4F3F5282529C9
:100402003A2000D1E4E2E8E3286D73293A200000A3
:00000001FF
