:100000000C9434000C9451000C9451000C94510049
:100010000C9451000C9451000C9451000C9451001C
:100020000C9451000C9451000C9451000C9451000C
:100030000C9451000C9451000C9451000C945100FC
:100040000C9451000C9451000C9451000C945100EC
:100050000C9451000C9451000C9451000C945100DC
:100060000C9451000C94510011241FBECFEFD8E026
:10007000DEBFCDBF11E0A0E0B1E0EAEDF0E002C0EC
:1000800005900D92A230B107D9F711E0A2E0B1E0DE
:1000900001C01D92A930B107E1F70E9468000C94DD
:1000A0006B000C94000080B7806880BF259A2D9863
:1000B00088B1806388B987B18F7C87B980E88093E5
:1000C000B8001092B90085E48093BC00789408953C
:0A00D0000E945300FFCFF894FFCF09
:0200DA003F00E5
:00000001FF
