:100000000C944C000C9469000C9469000C946900E9
:100010000C9469000C9469000C9469000C946900BC
:100020000C9469000C9469000C9469000C946900AC
:100030000C9469000C9469000C9469000C9469009C
:100040000C9469000C9469000C9469000C9469008C
:100050000C9469000C9469000C9469000C9469007C
:100060000C9469000C9469000C9469000C9469006C
:100070000C9469000C9469000C9469000C9469005C
:100080000C9469000C9469000C9469001201190128
:10009000250134010601440111241FBECFEFD0E138
:1000A000DEBFCDBF13E0A0E0B1E0EEE0F1E102C0C1
:1000B00005900D92AA35B107D9F713E0AAE5B3E090
:1000C00001C01D92A636B107E1F70E9412020C94FE
:1000D00085080C940000479AA4E6B0E08C918160FA
:1000E0008C93E5E6F0E080818E7F80838F9A9798ED
:1000F0008C9184608C938081846080838C918260F9
:100100008C9380818D7F80838FEF84BB15BABF9ADB
:100110008FE783BD85B58F7B85BD85B5886085BD3F
:1001200085B58F7D85BD85B5806185BD85B5897FA8
:1001300085BD85B5816085BDA1E6B0E08C9180620A
:100140008C93E2E6F0E080818F7D80838C918064E7
:100150008C9380818F7B8083D098D89AD198D99ABC
:10016000D298DA9AD498DC9A8898909AEAE6F0E0E5
:1001700080818260808389B7816089BF149A1C98CE
:10018000ECE7F0E0808180618083EDE7F0E0808142
:100190008061808310928B0010928A0086B7806104
:1001A00086BF87B7806187BF1FBC1EBCBC9A12BECA
:1001B00083B7886483BF83B7806283BF83B78F7E32
:1001C00083BF83B7826083BF83B78A7F83BF7894FE
:1001D0000895813011F4979801C0979A8091650035
:1001E00082608093650065BB809165008D7F809300
:1001F00065008CEC9AE00197F1F7089580E098EDA6
:100200000197F1F781E060E30E94E90080E09CE65D
:100210000197F1F781E060E30E94E90081E068E383
:100220000E94E90081E068E00E94E90081E061E06D
:100230000E94E90081E066E00E94E90081E06CE054
:100240000E94E9000895EF92FF921F93DF93CF93EE
:1002500000D000D0CDB7DEB7262F7A01198290E406
:100260009A8390E19B8390E59C832058FE01E80FE0
:10027000F11D6181620F81E00E94E90010E008C079
:10028000F0E0EE5AFE4F80E060810E94E9001F5FBF
:10029000F701E10FF11DE081EE2391F70F900F9030
:1002A0000F900F90CF91DF911F91FF90EF900895E5
:1002B000C89B02C082E001C080E0C99981600895B6
:1002C00090E0AA2797FDA095BA2FBC01CD010E940E
:1002D000930523E333E343E250E40E9469040E9460
:1002E000930261BF08951F93FC0160E177E20E94D1
:1002F0003A08662319F430E020E005C0605D6093A1
:100300005C0331E021E0CF0160E177E20E943A082E
:10031000482F192F68EE73E00E943A08662349F0CF
:10032000E22FF0E0E45AFC4F605D60832F5F31E024
:100330000BC0313011F030E007C0E22FF0E0E45A9A
:10034000FC4F80E380832F5F842F912F68EE73E052
:100350000E943A08482F192F64E670E00E943A087C
:10036000662349F0E22FF0E0E45AFC4F605D6083C1
:100370002F5F31E00BC0313011F030E007C0E22FC9
:10038000F0E0E45AFC4F80E380832F5F842F912FAD
:1003900064E670E00E943A08482F192F6AE070E086
:1003A0000E943A08662339F0E22FF0E0E45AFC4F4D
:1003B000605D608308C0313039F4E22FF0E0E45A28
:1003C000FC4F80E380832F5FE22FF0E0E45AFC4F84
:1003D000842F912F6AE070E00E943A08805D80834C
:1003E0002F5FE22FF0E0E45AFC4F10821F91089536
:1003F00080915001909151010E94730181E06BE066
:1004000040E051E00E942301ACE5B3E0FD01019022
:100410000020E9F76A2F6E1B605F81E0AD010E944A
:1004200023010895CF93DF930E946B000E94FE008A
:1004300088EE93E024E131E0F9013197F1F701977B
:10044000D9F781E060E046E051E00E9423010E947C
:10045000F8010E94580180935A03609150017091F5
:10046000510170E0882777FD8095982F0E949305B1
:1004700023E333E343E250E40E9469040E949302C1
:1004800061BFC9E9D5E10E945801282F80935B0321
:1004900080915A03821709F442C0833071F42130ED
:1004A00009F58091500190915101892BE9F08091DB
:1004B000500190915101059710C0823099F4222388
:1004C00089F480915001909151018436910560F436
:1004D0008091500190915101059690935101809324
:1004E000500102C080E001C081E020935A038823BC
:1004F000B1F00E94F801609150017091510170E0DB
:10050000882777FD8095982F0E94930523E333E396
:1005100043E250E40E9469040E94930261BFCE014D
:100520000197F1F7B0CFEF92FF920F931F937B01EA
:100530008C0120E030E040E05FE40E946305882306
:100540008CF0C801B70120E030E040E05FE40E9499
:100550000B040E94F1059B01AC012050304040404B
:10056000504806C0C801B7010E94F1059B01AC01CB
:10057000B901CA011F910F91FF90EF900895A0E07B
:10058000B0E0E5ECF2E00C944E08DC012B01FA013E
:100590009C91923008F439C1EB018881823008F4D3
:1005A00033C1943069F4843009F02FC111969C91C5
:1005B00011978981981709F428C1A2E5B2E025C1F5
:1005C000843009F421C18230A9F4923009F01DC1B0
:1005D0009A01AD0188E0EA010990AE01E9010992B2
:1005E0009E018150C1F7E201898111969C91892376
:1005F000818308C1923009F407C112962D903C9076
:100600001397EB018A819B811496AD90BD90CD909C
:10061000DC901797EC80FD800E811F819101281BD3
:10062000390BB90137FF04C066277727621B730BAC
:10063000603271050CF061C0121613066CF53701BB
:100640004801062E04C096948794779467940A9480
:10065000D2F721E030E040E050E004C0220F331F29
:10066000441F551F6A95D2F72150304040405040FA
:100670002E213F21402351232115310541055105EC
:1006800021F021E030E040E050E079018A01E628E5
:10069000F728082919293CC0232BD1F1260E371E33
:1006A00035014601062E04C096948794779467948A
:1006B0000A94D2F721E030E040E050E004C0220F7D
:1006C000331F441F551F6A95D2F7215030404040D8
:1006D00050402A213B214C215D2121153105410546
:1006E000510521F021E030E040E050E059016A017D
:1006F000A628B728C828D9280BC0821593052CF046
:100700001C01AA24BB24650103C0EE24FF24870139
:1007100011969C91D20111968C91981709F445C0BD
:10072000992339F0A80197012A193B094C095D0961
:1007300006C0A60195012E193F09400B510B57FD2C
:1007400008C01182338222822483358346835783F3
:100750001DC081E081833382228288279927DC01B2
:10076000821B930BA40BB50B84839583A683B7835D
:100770000DC0220F331F441F551F2483358346832A
:10078000578382819381019793838283248135816A
:1007900046815781DA01C9010197A109B1098F5F2B
:1007A0009F4FAF4FBF4328F30BC091833382228208
:1007B000EA0CFB1C0C1D1D1DE482F58206831783C9
:1007C00083E08083248135814681578157FF1AC099
:1007D000C901AA2797FDA095BA2F81709070A070CB
:1007E000B0705695479537952795822B932BA42B60
:1007F000B52B84839583A683B783828193810196E9
:1008000093838283DF0101C0D201CD01CDB7DEB772
:10081000E2E10C946A08A0E2B0E0E1E1F4E00C94BB
:100820005A0869837A838B839C832D833E834F830D
:100830005887E9E0EE2EF12CEC0EFD1ECE0101965C
:10084000B7010E9469078E010F5E1F4FCE0105960A
:10085000B8010E9469078A8991E089278A8BC701BC
:10086000B801AE01475E5F4F0E94BF020E9494062E
:10087000A096E6E00C947608A0E2B0E0E2E4F4E0B2
:100880000C945A0869837A838B839C832D833E83DF
:100890004F835887F9E0EF2EF12CEC0EFD1ECE01B0
:1008A0000196B7010E9469078E010F5E1F4FCE01AE
:1008B0000596B8010E946907C701B801AE01475EFD
:1008C0005F4F0E94BF020E949406A096E6E00C943F
:1008D0007608A0E2B0E0EFE6F4E00C944E086983FD
:1008E0007A838B839C832D833E834F835887CE01ED
:1008F0000196BE01675F7F4F0E946907CE01059692
:10090000BE016F5E7F4F0E9469079985923088F023
:1009100089898230C8F0943019F4823051F404C0CF
:10092000843029F4923081F482E592E0C6C092309E
:1009300049F420E09A858A89981321E02A87CE011C
:100940000996BBC0823049F420E09A858A899813C1
:1009500021E02A8BCE014196B0C02D843E844F8485
:1009600058886D887E888F88988CEE24FF248701B4
:10097000AA24BB24650140E050E060E070E0E0E0C4
:10098000F0E0C10181709070892BE9F0E60CF71C52
:10099000081D191D9A01AB012A0D3B1D4C1D5D1D43
:1009A00080E090E0A0E0B0E0E614F7040805190547
:1009B00020F481E090E0A0E0B0E0BA01A901480F86
:1009C000591F6A1F7B1FAA0CBB1CCC1CDD1C97FE89
:1009D00008C081E090E0A0E0B0E0A82AB92ACA2AC5
:1009E000DB2A3196E032F10549F0660C771C881C51
:1009F000991C5694479437942794C3CFFA85EA8973
:100A00002B893C898B859C85280F391F2E5F3F4F92
:100A100017C0CA0181709070892B61F016950795F7
:100A2000F794E79480E090E0A0E0B0E8E82AF92AA3
:100A30000A2B1B2B76956795579547952F5F3F4F50
:100A400077FDE7CF0CC0440F551F661F771F17FDBA
:100A50004160EE0CFF1C001F111F21503040403040
:100A600090E0590790E0690790E4790760F32B8FD5
:100A70003C8FDB01CA018F779070A070B07080341A
:100A80009105A105B10561F447FD0AC0E114F10427
:100A90000105110529F0405C5F4F6F4F7F4F407893
:100AA0001A8EFE1711F081E08A8F4D8F5E8F6F8F47
:100AB00078A383E0898FCE0149960E949406A09680
:100AC000E2E10C946A08A8E1B0E0E9E6F5E00C94F4
:100AD0005A0869837A838B839C832D833E834F835B
:100AE000588789E0E82EF12CEC0EFD1ECE01019610
:100AF000B7010E9469078E010F5E1F4FCE01059658
:100B0000B8010E9469078985823040F08989823066
:100B100028F0C701B8010E94E10701C08FEF689675
:100B2000E6E00C947608A8E0B0E0E9E9F5E00C9482
:100B300057089B01AC0183E08983DA01C90188274A
:100B4000B7FD83959927AA27BB27B82E2115310514
:100B50004105510519F482E089833AC08823A9F040
:100B6000203080E0380780E0480780E8580729F403
:100B700060E070E080E09FEC30C0EE24FF2487014D
:100B8000E21AF30A040B150B02C079018A018EE107
:100B9000C82ED12CDC82CB82ED82FE820F83188797
:100BA000C801B7010E94450601971816190684F47A
:100BB000082E04C0EE0CFF1C001F111F0A94D2F770
:100BC000ED82FE820F831887C81AD90ADC82CB8295
:100BD000BA82CE0101960E9494062896E9E00C9410
:100BE0007308ACE0B0E0E7EFF5E00C945E086983D1
:100BF0007A838B839C83CE010196BE016B5F7F4F0E
:100C00000E9469078D81823061F1823050F1843019
:100C100021F48E81882351F12EC02F81388537FD34
:100C200020C06E812F3131051CF06623F9F023C0FE
:100C30008EE190E0821B930B29853A854B855C857C
:100C400004C056954795379527958A95D2F7662320
:100C5000B1F050954095309521953F4F4F4F5F4FE4
:100C60000EC020E030E040E050E009C02FEF3FEF41
:100C70004FEF5FE704C020E030E040E050E8B9010A
:100C8000CA012C96E2E00C947A08EF92FF920F933F
:100C90001F937B018C0180E0E81680E0F80681E07C
:100CA000080780E0180788F48FEFE816F1040105C3
:100CB000110531F028F088E090E0A0E0B0E017C026
:100CC00080E090E0A0E0B0E012C080E0E81680E0B4
:100CD000F80680E0080781E0180728F088E190E036
:100CE000A0E0B0E004C080E190E0A0E0B0E020E24D
:100CF00030E040E050E0281B390B4A0B5B0B04C08E
:100D000016950795F794E7948A95D2F7F701E65A76
:100D1000FD4F8081281B310941095109C9011F91EB
:100D20000F91FF90EF900895DF92EF92FF920F9353
:100D30001F93FC01E480F58006811781D1808081BA
:100D4000823048F480E090E0A0E1B0E0E82AF92A9F
:100D50000A2B1B2BA5C0843009F49FC0823021F4DC
:100D6000EE24FF24870105C0E114F10401051105FB
:100D700019F4E0E0F0E096C0628173819FEF623881
:100D800079070CF05BC022E83FEF261B370B2A31B6
:100D900031052CF020E030E040E050E02AC0B801FE
:100DA000A701022E04C076956795579547950A943A
:100DB000D2F781E090E0A0E0B0E004C0880F991F76
:100DC000AA1FBB1F2A95D2F70197A109B1098E214D
:100DD0009F21A023B1230097A105B10521F081E057
:100DE00090E0A0E0B0E09A01AB01282B392B4A2B10
:100DF0005B2BDA01C9018F779070A070B0708034DE
:100E00009105A105B10539F427FF09C0205C3F4FCA
:100E10004F4F5F4F04C0215C3F4F4F4F5F4FE0E0AB
:100E2000F0E02030A0E03A07A0E04A07A0E45A072B
:100E300010F0E1E0F0E079018A0127C06038710527
:100E400064F5FB01E158FF4FD801C7018F7790701F
:100E5000A070B07080349105A105B10539F4E7FEAA
:100E60000DC080E490E0A0E0B0E004C08FE390E02B
:100E7000A0E0B0E0E80EF91E0A1F1B1F17FF05C017
:100E800016950795F794E794319687E016950795A0
:100E9000F794E7948A95D1F705C0EE24FF248701E3
:100EA000EFEFF0E06E2F679566276795902F9F779D
:100EB000D794DD24D7948E2F8695492F462B582F13
:100EC0005D29B701CA011F910F91FF90EF90DF904C
:100ED0000895FC01DB01408151812281622F6F77EF
:100EE00070E0221F2227221F9381892F880F822BD7
:100EF000282F30E0991F9927991F11969C931197DD
:100F000021153105A9F5411551056105710511F44A
:100F100082E037C082E89FEF13969C938E931297DE
:100F20009A01AB0167E0220F331F441F551F6A95DA
:100F3000D1F783E08C930DC0220F331F441F551F40
:100F400012968D919C911397019713969C938E9373
:100F50001297203080E0380780E0480780E4580787
:100F600058F314962D933D934D935C9317970895E2
:100F70002F3F310579F4411551056105710519F4CB
:100F800084E08C93089564FF03C081E08C9312C0C9
:100F90001C9210C02F57304013963C932E931297FB
:100FA00083E08C9387E0440F551F661F771F8A9557
:100FB000D1F7706414964D935D936D937C9317975E
:100FC00008951F93DC01FB019C91923008F447C007
:100FD0008081823008F443C0943051F411961C9102
:100FE000843099F58181682F70E0611B71093FC0E1
:100FF000843021F0923031F48230B9F1818188233C
:1010000089F12DC011961C9111978230F1F08181E8
:101010001817D9F412962D913C91139782819381E0
:101020008217930794F028173907BCF014968D9116
:101030009D910D90BC91A02D2481358146815781D1
:10104000281739074A075B0718F4112341F00AC033
:1010500082179307A407B50740F4112319F061E044
:1010600070E005C06FEF7FEF02C060E070E0CB0181
:101070001F910895AA1BBB1B51E107C0AA1FBB1FEC
:10108000A617B70710F0A61BB70B881F991F5A9514
:10109000A9F780959095BC01CD0108952F923F92BC
:1010A0004F925F926F927F928F929F92AF92BF9278
:1010B000CF92DF92EF92FF920F931F93CF93DF9324
:1010C000CDB7DEB7CA1BDB0B0FB6F894DEBF0FBE81
:1010D000CDBF09942A88398848885F846E847D84CE
:1010E0008C849B84AA84B984C884DF80EE80FD80D0
:1010F0000C811B81AA81B981CE0FD11D0FB6F89446
:0E110000DEBF0FBECDBFED010895F894FFCF06
:10110E00202020202000C2EEE7E4F3F52825293A1E
:10111E002000CEF8E8E1EAE000DFD0CED1CBC0C2AD
:10112E00D1CAC8C900C7C0C2CEC420CDC0CFC8D294
:10113E00CACEC200D1F2F0EEE1EEF1EAEEEF207689
:10114E00312E3000D1E4E2E8E3286D73293A200015
:10115E000A00000102030405060708090A0B0C0D1C
:10116E000E0F101112131415161718191A1B1C1D19
:10117E001E1F202122232425262728292A2B2C2D09
:10118E002E2F303132333435363738393A3B3C3DF9
:10119E003E3F404142434445464748494A4B4C4DE9
:1011AE004E4F505152535455565758595A5B5C5DD9
:1011BE005E5F606162636465666768696A6B6C6DC9
:1011CE006E6F707172737475767778797A7B7C7DB9
:1011DE007E7F808182838485868788898A8B8C8DA9
:1011EE008E8F909192939495969798999A9B9C9D99
:1011FE009E9FA0A1A2A3A4A5A6A7A2A9AAABACAD8F
:10120E00AEAFB0B1B2B3B4B5B6B7B5B9BABBBCBD7B
:10121E00BEBF41A042A1E045A3A4A5A64BA74D4841
:10122E004FA8504354A9AA58E1ABACE2ADAE62AFA1
:10123E00B0B161B2B3B4E365B6B7B8B9BABBBCBDB1
:10124E006FBE7063BF79E478E5C0C1E6C2C3C4C5A2
:10125E00C6C70000000000000000000102020303E8
:10126E00030304040404040404040505050505052C
:10127E00050505050505050505050606060606060A
:10128E0006060606060606060606060606060606F0
:10129E0006060606060606060606070707070707DA
:1012AE0007070707070707070707070707070707C0
:1012BE0007070707070707070707070707070707B0
:1012CE0007070707070707070707070707070707A0
:1012DE00070707070707070707070808080808088A
:1012EE000808080808080808080808080808080870
:1012FE000808080808080808080808080808080860
:10130E00080808080808080808080808080808084F
:10131E00080808080808080808080808080808083F
:10132E00080808080808080808080808080808082F
:10133E00080808080808080808080808080808081F
:10134E00080808080808080808080808080808080F
:0A135E000808080808080808080835
:00000001FF
