:1000000014C02CC02BC02AC029C028C0B1C078C0E1
:1000100025C09DC023C022C021C020C01FC01EC05B
:100020001DC01CC01BC01AC019C011241FBECFEDBB
:10003000CDBF10E0A0E6B0E0EAE9F3E002C0059031
:100040000D92A236B107D9F710E0A2E6B0E001C0E8
:100050001D92A63BB107E1F758D19DC1D1CF479A78
:100060001ABA1BBA8FEF87BB18BA81B38C6781BBF2
:1000700081B38C7F81BB82B3837882BB84EF91E0B4
:1000800028EC30E0F9013197F1F70197D9F710BE6C
:1000900013BE89B7826089BF12B883E389B980ED46
:1000A0008AB986E083B978940895813011F49498E0
:1000B00001C0949A969A68BB969880ED97E0019754
:1000C000F1F7089580E49CE90197F1F781E060E39E
:1000D000ECDF80E29EE40197F1F781E060E3E5DF89
:1000E00081E068E3E2DF81E068E0DFDF81E061E09A
:1000F000DCDF81E066E0D9DF81E06CE0D6DF0895E7
:100100001F920F920FB60F9211248F93EF93FF93CC
:1001100012BE80918B00883221F410928B0013BEA6
:100120000EC0E0918B00F0E08CB1ED59FF4F808361
:1001300080918B008F5F80938B0084E083BFFF9161
:10014000EF918F910F900FBE0F901F9018951F92F7
:100150000F920FB60F9211248F93809162008061ED
:10016000809362008F910F900FBE0F901F90189593
:100170001F920F920FB60F9211248F9313BE80918E
:1001800062008260809362008F910F900FBE0F908B
:100190001F901895FC012FEF3FEFA1E0B0EA14C0CB
:1001A000808190E02827392740E0C90196958795FE
:1001B00020FF04C09C012A273B2701C09C014F5F00
:1001C000483099F731966150662351F7C901089577
:1001D000882349F0539A5498929A809162008061E2
:1001E000809362000895549A5398929808950F93BB
:1001F0001F93CF93DF9390916300809160009817D5
:1002000009F07EC060918B0083E690E0C3DF892B0C
:1002100011F091E05EC0109164001A3009F451C0F1
:10022000103111F092E055C080916500882309F0EB
:100230004FC080916600823008F04AC0709166001D
:1002400080916700882309F041C080916800803266
:10025000E8F56091680000916900402F50E09A0134
:10026000260F311D872F90E0E4E0880F991FEA9553
:10027000E1F7280F391F2132310514F095E029C02C
:1002800080918B00475F5F4F90E04817590711F04E
:1002900096E01FC060587295770F770F707C670FDC
:1002A00081E003DFC7E0D0E007C0FE01ED59FF4F5A
:1002B000608180E0FADE21969E0127502017A8F386
:1002C00003C081E061E0F1DE90E003C094E001C092
:1002D00093E08091600080938C0010938D00909348
:1002E0008E008CE890E063E055DF80938F00909360
:1002F00090001092B40085E08093B50081E068DF43
:10030000DF91CF911F910F9108950F931F9300E2FA
:100310001EE4C8010197F1F7A2DEC8010197F1F7C9
:10032000D1DE80E055DF959A88E893E128EC30E053
:10033000F9013197F1F70197D9F79598809162000B
:1003400081FF08C054DF10928B00809162008D7F86
:10035000809362008091620084FFF0CF9091B4009E
:100360008091B500981719F480E032DF0EC05D9BD4
:10037000FECFE091B400F0E0E457FF4F80818CB9EC
:100380008091B4008F5F8093B400809162008F7E73
:0A03900080936200D3CFF894FFCFF2
:02039A00C90098
:00000001FF
