:1000000014C02CC02BC02AC029C028C0AFC076C0E5
:1000100025C09BC023C022C021C020C01FC01EC05D
:100020001DC01CC01BC01AC019C011241FBECFEDBB
:10003000CDBF10E0A0E6B0E0ECE1F3E002C0059037
:100040000D92A236B107D9F710E0A2E6B0E001C0E8
:100050001D92A439B107E1F71ED15EC1D1CF479AF5
:100060001ABA1BBA8FEF87BB18BA81B3886781BBF6
:1000700084EF91E020E931E0F9013197F1F7019740
:10008000D9F710BE13BE89B7826089BF12B887E660
:1000900089B980ED8AB986E083B90895813011F479
:1000A000949801C0949A969A68BB969880EA9FE0CB
:1000B0000197F1F7089588EC90E020E931E0F9012B
:1000C0003197F1F70197D9F781E060E3E7DF80E44A
:1000D0009CE90197F1F781E060E3E0DF81E068E30C
:1000E000DDDF81E068E0DADF81E061E0D7DF81E039
:1000F00066E0D4DF81E06FE0D1DF08951F920F92B8
:100100000FB60F9211248F93EF93FF9312BE80913D
:1001100081008E3121F41092810013BE0EC0E09157
:100120008100F0E08CB1ED59FF4F80838091810018
:100130008F5F8093810083E083BFFF91EF918F9168
:100140000F900FBE0F901F9018951F920F920FB631
:100150000F9211248F9380916200806180936200DE
:100160008F910F900FBE0F901F9018951F920F92B6
:100170000FB60F9211248F9313BE8091620082609C
:10018000809362008F910F900FBE0F901F90189573
:10019000FC012FEF3FEFA1E0B0EA14C0808190E0B6
:1001A0002827392740E0C9019695879520FF04C08C
:1001B0009C012A273B2701C09C014F5F483099F7DB
:1001C00031966150662351F7C9010895882349F09B
:1001D000539A5498929A8091620080618093620051
:1001E0000895549A5398929808956091810083E6F7
:1001F00090E0CEDF892B09F04DC090916300809193
:100200006000981709F046C080916400873109F0BA
:1002100041C0809181008D31E9F580916500853183
:10022000C9F5809166008A3AA9F580916700882314
:1002300089F580916800833069F580916900873184
:1002400049F580916A00853529F580916B008823F6
:1002500009F580916C008830E9F480916D0080315F
:10026000C9F4809160008093820087E180938300CD
:1002700086E08093840082E890E069E089DF8093E3
:100280008B0090938C00109292008BE080939300EF
:1002900081E09CDF0895E3DE0EDF81E060E8FEDEB2
:1002A00080E061E5FBDE80E061E6F8DE81E060ECA5
:1002B000F5DE80E064EDF2DE80E068ECEFDE809158
:1002C000620081FF08C091DF10928100809162007E
:1002D0008D7F809362008091620084FFF0CF9091C7
:1002E000920080919300981719F480E06FDF0EC0A0
:1002F0005D9BFECFE0919200F0E0EE57FF4F8081D2
:100300008CB9809192008F5F8093920080916200FF
:0C0310008F7E80936200D3CFF894FFCF63
:02031C00C90016
:00000001FF
