:100000000C94FE1A0C941B1B0C941B1B0C941B1BB6
:100010000C941B1B0C945D1D0C941B1B0C944A1D13
:100020000C941B1B0C941B1B0C941B1B0C941B1B78
:100030000C941B1B0C941B1B0C941B1B0C941B1B68
:100040000C941B1B0C941B1B0C941B1B0C941B1B58
:100050000C941B1B00000000000000000000063193
:100060008C6300C60000000036DB6D8000000000DD
:10007000000000000000012091FCFE247F3F890465
:1000800080000000000010107CD2D0D07C161696A4
:100090007C101000000000000000007803310CC844
:1000A00033407AF0166099846600F000000000008A
:1000B000000000000078330CC33079B36C73187BF8
:1000C00080000000000666600000000000000630AE
:1000D000C61861861860C30600001830C186186112
:1000E0008618C318000000185A3C5A180000000077
:1000F000000000000000000000004020107F04020B
:100100000100000000000000000000066CC00000BC
:1001100000000000007C0000000000000000000063
:1001200000066000000000040408081010202040B1
:1001300040808000000000007CC6C6C6C6C6C6C699
:100140007C00000000000000187818181818181813
:100150007E000000000000007C8686060C183060DF
:10016000FE000000000000007C8606063C060686B5
:100170007C000000000000000C1C2C4C8CFE0C0CC1
:100180000C000000000000007E60607C0606068611
:100190007C000000000000003C60C0FCC6C6C6C673
:1001A0007C00000000000000FE060C0C1818303027
:1001B00030000000000000007CC6C6C67CC6C6C673
:1001C0007C000000000000007CC6C6C6C67E060C8F
:1001D00078000000000000018C0000C60000000054
:1001E00000018C0000C663000000000000000060F9
:1001F00060606018018018018000000000000000AD
:1002000000000007F800001FE000000000000000F0
:10021000000000000000180180180180606060602C
:10022000000000000000000791830C306001830093
:10023000000000000000003E1049EADAB6ADAB6AEB
:100240006C400FC0000000000000001C070360D8D5
:10025000631FC63306C18000000000000000FCC61A
:10026000C6C6FCC6C6C6FC000000000000007CC27A
:10027000C2C0C0C0C2C27C000000000000000FC6A7
:10028000330D86C361B0D8CFC00000000000000F5E
:10029000D83060F983060FC000000000000FD8308E
:1002A00060F983060C000000000000007CC2C2C0A0
:1002B000CEC6C6C67E000000000000000C361B0D36
:1002C00086FF61B0D86C3000000000000F318C63F5
:1002D00018CF0000000000786186186186F00000E9
:1002E00000000000C6CCD8F0E0F0D8CCC60000007A
:1002F0000000000C183060C183060FC00000000031
:1003000000000000F0EF0ED96D96CE6CE6C46C468E
:10031000C060000000000000000000F1BC6D9B66A2
:10032000CDB36C7B1EC3800000000000000007E618
:100330001B0D86C361B0D867E0000000000000001C
:10034000FCC6C6C6C6FCC0C0C0000000000000005D
:1003500007E61B0D86C361B0D867E0300C000000D3
:1003600000000FC633198CFC6C3318CC3000000031
:10037000000000007CC2C2C07C0686867C000000B3
:100380000000000FC60C183060C1830000000000A0
:100390000000C6C6C6C6C6C6C6C67C0000000000B1
:1003A00000000C361B0CCC661E0F03018000000001
:1003B0000000000000000C63631B18D9E66F63CFD8
:1003C0001E7861830C0000000000000000000C3665
:1003D000199878181E19986C300000000000000071
:1003E0000C361998CC3C0C0603018000000000007C
:1003F000000FC1830C30C3060FC0000000001E6157
:100400008618618618618780000000808040402047
:10041000201010080804040000001E1861861861EE
:100420008618678000000000018121090200000099
:1004300000000000000000000000000000000000BC
:1004400000000000FF00000001C448911C000000F3
:10045000000000000000000000003C46067EC6C60A
:100460007E000000000000C0C0C0DCE6C6C6C6C6F4
:10047000FC00000000000000001E62C1830627800F
:1004800000000000000606067EC6C6C6C6CE760080
:1004900000000000000000007CC6C6FEC0C27C0058
:1004A000000000000E618F186186186000000000D7
:1004B000000000007EC6C6C6C6CE7606867C00005A
:1004C00000C0C0C0DCE6C6C6C6C6C6000000006CE0
:1004D00036DB6C00000660E66666666C0000060CA3
:1004E00018336CF1C3C6CCC00000006DB6DB6C00E5
:1004F00000000000000000003EE666CCD99B336699
:100500006CCC00000000000000000000DCE6C6C665
:10051000C6C6C60000000000000000007CC6C6C6BB
:10052000C6C67C000000000000000000DCE6C6C675
:10053000C6C6FCC0C0C00000000000007EC6C6C623
:10054000C6CE76060606000000000DBEC30C30C005
:10055000000000000000001E62E0F07467800000F0
:10056000000000618F9861861838000000000000CC
:100570000000C6C6C6C6C6CE760000000000000059
:100580000000C6C6C66C6C383800000000000000D1
:10059000000000003336666D8DB1CE198330000047
:1005A0000000000000000033667861E66CC00000C7
:1005B000000000000000C6C6C66C6C383818303029
:1005C00000000000003F061861860FC00000000018
:1005D00000E3060C18E060C18306070000000183F9
:1005E000060C183060C183060C0000000703060CDF
:1005F000181C60C1830638000000000000000000E5
:100600000003C2FC51FA1E000000000000000000C0
:1006100000000000000000000000000000000000DA
:1006200000000000001C070360D8631FC63306C12A
:100630008000000000000000FCC0C0FCC6C6C6C6AA
:10064000FC00000000000000FCC6C6C6FCC6C6C612
:10065000FC0000000000000FD83060C183060C00D1
:10066000000000000000003F0CC330CC330CC6314A
:100670008CFFB06C18000000000FD83060F98306C2
:100680000FC000000000000000000C633330DB06E8
:10069000D83FC1B61998CCCC630000000000000020
:1006A00000007C8686063C0686867C0000000000F2
:1006B000000000C1B06C3B1ECDB66F1B86C1800030
:1006C0000000220881C000C1B06C3B1ECDB66F1B7C
:1006D00086C18000000000000000C6CCCCD8F0D855
:1006E000CCCCC600000000000000003F8C6318C6A0
:1006F000318C631986C180000000000000000000FA
:10070000F0EF0ED96D96CE6CE6C46C46C06000006A
:100710000000000000000C361B0D86FF61B0D86C95
:10072000300000000000000007E61B0D86C361B02A
:10073000D867E00000000000000000FFB06C1B065E
:10074000C1B06C1B06C18000000000000000FCC6A8
:10075000C6C6C6FCC0C0C0000000000000007CC2CD
:10076000C2C0C0C0C2C27C0000000000000FC60CA6
:10077000183060C183000000000000000C3619989A
:10078000CC3C0E0603070000000000000000000043
:10079000C0FF333666CCD99B333FC0C00000000099
:1007A000000000000C36199878181E19986C30005B
:1007B00000000000000000C330CC330CC330CC3349
:1007C0000CFF80601800000000000C361B0D86C373
:1007D0003F80C060300000000000000000000C639B
:1007E000631B18D8C6C63631B18D8C6FFF00000070
:1007F000000000000000000000C63318CC63318CFC
:10080000C63318CC63318CFFF80060018000000013
:10081000000000F00C0300FC318C6318C63F0000A0
:10082000000000000000000C0D81B037E6C6D8DBE8
:100830001B636FCC0000000000000000C0C0C0FCC3
:10084000C6C6C6C6FC000000000000007C86860606
:100850003E0686867C00000000000000000000C309
:10086000F3186C61B186FE1B186C61B186C3F00091
:10087000000000000000000003F3198CC63F0D8C3F
:10088000CC6C300000000000000000003C46067EFA
:10089000C6C67E0000000000003E60C0FCC6C6C6A2
:1008A000C6C67C000000000000000000FCC6C6FCBC
:1008B000C6C6FC000000000000000FB0C30C30C032
:1008C000000000000000000000F86C361B198CCFFF
:1008D000F61B0C000000000000007CC6C6FEC0C273
:1008E0007C0000000000000000000000000318CCA5
:1008F000CC36C0FC0DB0CCCC630000000000000082
:100900000000001E460CF03467800000000000006C
:100910000000030D8ECF6DBCDC6C300000000000C9
:10092000000441C0030D8ECF6DBCDC6C30000000B4
:10093000000000000000C6CCCCF8CCCCC600000003
:1009400000000000000000FC6633198CCC6C300005
:100950000000000000000000000C1B8EF7B76DDBEC
:1009600026C180000000000000000000C6C6C6FED0
:10097000C6C6C60000000000000000007CC6C6C657
:10098000C6C67C000000000000000000FEC6C6C60F
:10099000C6C6C6000000000000000000DCE6C6C6B7
:1009A000C6C6FCC0C0C000000000001E62C18306B5
:1009B0002780000000000000003F183060C1830065
:1009C0000000000000000000C6C6C66C6C38381875
:1009D0003030000000000600C0181FE666CCD99B2E
:1009E000336667F818030060000000000033667883
:1009F00061E66CC0000000000000000003198CC616
:100A0000633198CFF0180C00000000000000C6C64B
:100A1000C6C67E06060000000000000000000000C0
:100A2000333666CCD99B33666FFC000000000000B3
:100A300000000000000000CCCCCCCCCCCCCCCCCC8A
:100A4000FFE00600600000000000000003C0603E00
:100A5000198CC663E00000000000000000000000E8
:100A6000303606F8D99B33666F8C0000000000001A
:100A70000000003060F99B366F800000000000002D
:100A8000001E460CF83467800000000000000000E3
:100A9000000000C7CCC6CC6FC6CC6CC6C7C0000077
:100AA00000000000000000003E6666663E66C6006C
:100AB00000000000080012001E00300040005C0032
:100AC0007000780084009000A000B200BA00C80056
:100AD000D000E000F00000011001200130014001D1
:100AE00050016001700180018A019401A801BC01DC
:100AF000D001DE01F2010602160226023802460289
:100B000054026402760280028C029C02AA02C20293
:100B1000D602E802F8020A031C032C033A034A0334
:100B20005C03760388039A03A803B403C403D003C9
:100B3000E203F2030004100420042E043E044E04D9
:100B40005A046A047A048004880496049C04B2045B
:100B5000C204D204E204F204FE040C0518052805C0
:100B600038054E055C056C057A0588059605A405D3
:100B7000BA05CC05E005F00500060E062206300693
:100B80004A065A066E0682069206A606BE06D006DB
:100B9000E206F60606071607240736074C075E0727
:100BA000720784079E07BA07CE07E407F407040814
:100BB000200832084208520862086E08800890082F
:100BC000AA08B808CA08DC08EC08FE0812092209BD
:100BD00032094209520960096E097E099409A20985
:100BE000B409C409DA09F209040A1A0A280A360AF9
:100BF0004E0A5E0A04050609080E0A0406060809DC
:100C00000407040808080808080808080808050573
:100C10000A0A0A070A0A0808090707080905060850
:100C2000070C0A09080909080708090D0909070638
:100C30000806090807080807080806080803040743
:100C4000030B0808080806070608080B070807072B
:100C500007070B090A0808070A070D080A0A080A05
:100C60000C09090A080807090B090A090D0E0A0BE5
:100C700008080E090808080609080D0709090809E7
:100C80000A080808080707080B0709080B0C090BD6
:100C900007070C0800000000000000000000000032
:100CA0000000000000000000000000000000000044
:100CB00000000000000102030405060708090A0BF2
:100CC0000C0D0E0F101112131415161718191A1BEC
:100CD0001C1D1E1F202122232425262728292A2BDC
:100CE0002C2D2E2F303132333435363738393A3BCC
:100CF0003C3D3E3F404142434445464748494A4BBC
:100D00004C4D4E4F505152535455565758595A5BAB
:100D10005C5D5E5F0000000000000000000000005D
:100D200000000000000000000000000000000000C3
:100D300000000000000000000000000000000000B3
:100D400000000000000000000000000000000000A3
:100D500000000000606162636465666768696A6BD1
:100D60006C6D6E6F707172737475767778797A7B4B
:100D70007C7D7E7F808182838485868788898A8B3B
:100D80008C8D8E8F909192939495969798999A9B2B
:100D90009C9D9E9F000000000000000000000000DD
:100DA0000000000000000000000000000000000043
:100DB000000000000000000000000000381C0E07CA
:100DC0000381C0E070381C0E070381C0E000001CE6
:100DD0000E070000000000000000000000000000FE
:100DE0000E71CE39C738E71CE39C210000000000DB
:100DF00000000000000000000000000000000000F3
:100E000000000000000000000000000000000000E2
:100E100000000000031800C600630018C00630017F
:100E20008C07FFE1FFF80C600318018C00630018C9
:100E3000C07FFE1FFF80C60031800C600630018C31
:100E400000000000000000000000000000000000A2
:100E500000000000000000006000C0018003001FCF
:100E6000C0FFC3998E311C6038C079807F007FC07D
:100E70000FC01BC033806720CE71B8FFE07F800CAD
:100E800000180030006000C00000000000000000FA
:100E90000000000000000000000000000000007CD6
:100EA00001803F80C00C6030060C18018306006092
:100EB000C3001830C0060C60018318F8318C7F0F16
:100EC000E318C1F18C180063060030C1800C30605B
:100ED000060C1801830600C06300301FC01803E031
:100EE0000000000000000000000000000000000002
:100EF00000000000000000000000000000000000F2
:100F00001F001FE0073C038700E1C038700F180185
:100F1000EE003F1C0F8706F1C39E71C3DC707E1C80
:100F20000F8701E1E07C3C3F87FCF0FC1C000000E7
:100F3000000000000000000000000000071C71C756
:100F40001C70800000000000000000000000000095
:100F50000000000000000000381C0E0701C0E0384F
:100F60000E0781C0701C0701C0701C0701E0380E1D
:100F70000380701C0380700E00000000000000075A
:100F800000E01C0380E01C0701C0780E0380E038FD
:100F90000E0380E0381E0701C070380E070381C0C1
:100FA00000000000000000000000003000C023111D
:100FB000CCE1FE01E007807F873388C403000C008A
:100FC0000000000000000000000000000000000021
:100FD0000000000000000000000000000000000011
:100FE0000000000000000000000000000000000CF5
:100FF00000030000C00030000C00030000C01FFF11
:10100000E7FFF8030000C00030000C00030000C040
:1010100000300000000000000000000000000000A0
:1010200000000000000000000000000000000000C0
:10103000000000000000001E1C1C183838307060D2
:1010400000000000000000000000000000000000A0
:10105000000000000000000FF9FF00000000000089
:101060000000000000000000000000000000000080
:101070000000000000000000000000000000000070
:101080000000001C1C1C1C000000000000000000F0
:10109000000000000000600E00C00C00C0180180BD
:1010A000180300300300600600600C00C00C0180D3
:1010B00018018030030030070060000000000000CD
:1010C00000000000000000000003E01FF038E0E036
:1010D000E1C1C701CE039C07380E701CE039C07314
:1010E00080E701CE038E0E1C1C1C703FE01F000029
:1010F00000000000000000000000000000000000F0
:101100000000000000006001C007807F00FE001C9E
:101110000038007000E001C0038007000E001C00D2
:1011200038007000E001C03FF87FF00000000000D0
:1011300000000000000000000000000000000000AF
:101140000007E03FE070E080E001C0038007000E90
:101150000038007001C007801E003800E003800ED8
:101160000038007FF8FFF0000000000000000000E1
:101170000000000000000000000000000007E03F49
:10118000F070F080E001C0038007003C03E007C07E
:1011900000E000C001C0038007000E203870F0FF9F
:1011A000C07E000000000000000000000000000001
:1011B000000000000000000000003800F003E00D17
:1011C000C01B8067018E061C18383070C0E1FFF329
:1011D000FFE007000E001C0038007000E001C000B6
:1011E00000000000000000000000000000000000FF
:1011F00000000000000FFE1FFC38007000E001C07E
:10120000038007F80FF800780078007000E001C054
:10121000038007101C38787FE03F000000000000CA
:1012200000000000000000000000000000000000BE
:101230000000F807F01C207001C0038006001CF8B5
:101240003FF87878E079C07380E701CE038E071C01
:101250001C1C783FE01F00000000000000000000A0
:10126000000000000000000000000000003FFC7FC4
:10127000F8007000E0038007001C003800E001C0A7
:1012800007000E0038007000E0038007001C0038E3
:1012900000E000000000000000000000000000006E
:1012A00000000000000000000003F01FF07071C09B
:1012B0007380E701CF038F0E0FB80FE073E0E1E317
:1012C00081E701CE039C073C1E3C783FE01F0000F5
:1012D000000000000000000000000000000000000E
:1012E000000000000003E01FF078E0E0E381C701A8
:1012F000CE039C07380E781C78787FF07CE0018064
:1013000007000E003810E03F807C00000000000065
:1013100000000000000000000000000000000000CD
:101320000000001C0701C070000000000000000069
:1013300000701C0701C00000000000000000000059
:1013400000000000000000000000001C0701C07049
:10135000000000000000000000781C070180E03859
:101360000C070180000000000000000000000000E9
:10137000000000000000000000000002000E003C21
:1013800000F003C00F003C0070003C000F0003C0E1
:1013900000F0003C000E0002000000000000000011
:1013A000000000000000000000000000000000003D
:1013B000000000000000000000000000000000002D
:1013C00000000000FFFE7FFF0000000000000000A2
:1013D00003FFF9FFFC000000000000000000000017
:1013E00000000000000000000000000000000000FD
:1013F00000000000000000000000000000004000AD
:1014000070003C000F0003C000F0003C000E003CE8
:1014100000F003C00F003C0070004000000000001E
:1014200000000000000000000000000000000000BC
:1014300000000003F07FE307101C00E00700380302
:10144000803C03C03C03801800C006000000000C74
:101450000060030000000000000000000000000029
:10146000000000000000000000000000000000007C
:10147000007F0003FF800F03C03801C0E0018187B7
:10148000F1861FE30C70C731C18663030CC60619D1
:101490008C0C331818663030CC60618C61C618FF34
:1014A000FC387BF03800003800003C08003FF000BA
:1014B0001FE000000000000000000000000000002D
:1014C0000000000000000000078001E00078003FFD
:1014D000000FC003F001CE0073801CE00E1C0387D8
:1014E00000E1C07FF81FFE070383C0F0E01C38074F
:1014F0001E01E700380000000000000000000000AE
:10150000000000000000000000000000003FE07F3D
:10151000F0E0F1C0E381C7038E071C1C3FF07FF0B1
:10152000E071C07380E701CE039C07381C7078FF20
:10153000E1FF0000000000000000000000000000CB
:101540000000000000000000000003F007FE1E0E77
:101550001C063802380070007000700070007000C7
:10156000700070007000380038021C061E0E0FFE5E
:1015700003F0000000000000000000000000000078
:101580000000000000000000000000FF807FF03835
:101590003C1C070E01C700E38039C01CE00E700739
:1015A00038039C01CE00E700738071C038E03870CA
:1015B000783FF81FF000000000000000000000006D
:1015C0000000000000000000000000001FFE7FF986
:1015D000C007001C007001C007001FFC7FF1C0079E
:1015E000001C007001C007001C007001FFE7FF80B5
:1015F00000000000000000000000000000000000EB
:10160000000000001FFE7FF9C007001C007001C031
:1016100007001FF87FE1C007001C007001C0070031
:101620001C007001C0070000000000000000000066
:1016300000000000000000000000000000000000AA
:1016400007F007FF03C1E1C018E00238001C0007E3
:101650000001C00070001C0FE703F9C00E70038E7C
:1016600000E38038700E0F0381FFE01FC000000010
:10167000000000000000000000000000000000006A
:10168000000000000000700E700E700E700E700EE4
:10169000700E700E700E7FFE7FFE700E700E700E5C
:1016A000700E700E700E700E700E700E700E0000C8
:1016B000000000000000000000000000000000002A
:1016C0000003FE7FC1C0380700E01C0380700E01DC
:1016D000C0380700E01C0380700E0FF9FF00000007
:1016E0000000000000000000000000000000FE1FDD
:1016F000C0380700E01C0380700E01C0380700E00E
:101700001C0380700E438FF1F80000000000000001
:101710000000000000000000000000000000701E3B
:10172000703C707870F071E073C0778077007E0055
:101730007E007F00778073C071C071E070F07070C0
:101740007038703C701E00000000000000000000B7
:1017500000000000000000000000000E0070038088
:101760001C00E007003801C00E007003801C00E080
:1017700007003801C00E007003FF9FFC000000004E
:101780000000000000000000000000000000000059
:101790000000000003C01E7C07CF80F9F81F3B0645
:1017A000E760DCE6339CC6739CCE71B1CE3E39C394
:1017B000873870E7041CE0039C0073800E7001CE34
:1017C0000039C00700000000000000000000000019
:1017D0000000000000000000000000000000780E83
:1017E0007C0E7C0E7E0E760E770E730E730E718E4F
:1017F000718E71CE70CE70EE706E706E703E703EF7
:10180000703E701E701E000000000000000000000E
:1018100000000000000000000000000000000000C8
:10182000001FC007FC03C1E0701C1C01C38038E02E
:10183000039C0073800E7001CE0039C0073800E7AA
:10184000001C70070E00E0E0381E0F01FF800FE063
:101850000000000000000000000000000000000088
:101860000000000000000000003FE07FF0E0F1C059
:10187000E380E701CE039C07380E7038E0F1FFC328
:10188000FE07000E001C0038007000E001C00000E0
:101890000000000000000000000000000000000048
:1018A0000000000000000000001FC007FC03C1E0B2
:1018B000701C1C01C38038E0039C0073800E700113
:1018C000CE0039C0073800E7001C70070E00E0E0CA
:1018D000381E0F00FFC00FE0001C0003800038001E
:1018E00007F0003E000000000000000000000000C3
:1018F000000000FF807FE038381C0E0E07070383CE
:1019000081C1C0E0E0E070F03FF01FE00E78071EFC
:10191000038781C1C0E0F0703C380F1C03C0000099
:1019200000000000000000000000000000000000B7
:10193000000000000003F01FF87871C0238007004A
:101940000E001E001F001FE00FE001E001E001C0DB
:10195000039007301C7878FFE03F00000000000093
:101960000000000000000000000000000000000077
:1019700000007FFE7FFE01C001C001C001C001C0A8
:1019800001C001C001C001C001C001C001C001C04F
:1019900001C001C001C001C001C000000000000082
:1019A0000000000000000000000000000000000037
:1019B0000000700E700E700E700E700E700E700EB5
:1019C000700E700E700E700E700E700E700E700E27
:1019D000700E381C3C3C1FF807E0000000000000BF
:1019E00000000000000000000000000000000000F7
:1019F00000000001C00E78078E01C38070F03C1C0F
:101A00000E070381E1E038700E1C03CF0073801CC9
:101A1000E0073800FC003F000FC001E00078001E26
:101A200000000000000000000000000000000000B6
:101A300000000000000000000000000000000000A6
:101A4000000001C0300E701E038E0781C381E0705C
:101A5000E0781C383707070CC381C330E070CC38FE
:101A60001C638E03986700E619C03986700EC1DCCE
:101A700001F03E007C0F801F03E007C0F800E01C6F
:101A80000038070000000000000000000000000017
:101A90000000000000000000000000000000000046
:101AA00000000001C00E3807070381C0E03870074E
:101AB0003801CE003F000F8001E00078003E000FAB
:101AC000C0073801CE00E1C070381C0E0E01C700FF
:101AD00038000000000000000000000000000000CE
:101AE0000000000000000000000000E00E70071C75
:101AF000070F07838381E3C073C01DC00FE003E0BD
:101B000001E000700038001C000E00070003800197
:101B1000C000E000700000000000000000000000B5
:101B2000000000000000000000000000003FFE7FF9
:101B3000FC003800E0038007001C003800E0038050
:101B400007001C007000E0038007001C007000FF0D
:101B5000F9FFF0000000000000000000000000009D
:101B600000000003F8FE380E0380E0380E0380E02A
:101B7000380E0380E0380E0380E0380E0380E03832
:101B80000E03F8FE000000000000000000600700E7
:101B90003003003801801801800C00C00C00600682
:101BA000006003003003001801801801C00C00C061
:101BB0000E0060000000000000000007F1FC0701BB
:101BC000C0701C0701C0701C0701C0701C0701C059
:101BD000701C0701C0701C0701C7F1FC0000000069
:101BE000000000000000000000000000030001E011
:101BF000007800330018600618030301C060601805
:101C000030031C00E00000000000000000000000A5
:101C100000000000000000000000000000000000C4
:101C200000000000000000000000000000000000B4
:101C300000000000000000000000000000000000A4
:101C40000000000000000000000000000000000094
:101C500000000000000000000000000000007FFE07
:101C60007FFE000000000000000C0FC33186618C75
:101C7000C3F0300000000000000000000000000081
:101C80000000000000000000000000000000000054
:101C90000000000000000000000000000000000143
:101CA000F81FF083C00E00703F87FC78E787383953
:101CB000C1CE0E78F1FB879C000000000000000000
:101CC0000000000000000000000007001C00700180
:101CD000C007001C0073C1FF87C71C1C7039C0E718
:101CE000039C0E7039C0E7039C1C78F1FF877C00D1
:101CF00000000000000000000000000000000000E4
:101D00000000000000000000000007C1FE3C6382EC
:101D10007007007007007007007003823C61FE07C7
:101D2000C0000000000000000000000000000000F3
:101D300000000003800E003800E003800E07B87F2B
:101D4000E3C78E0E7039C0E7039C0E7039C0E703FD
:101D50008E0E38F87FE0F3800000000000000000E5
:101D60000000000000000000000000000000000073
:101D7000000000000007C07F83C70E0E7039C0E767
:101D8000FF9FFE7001C007000E023C187FE07E003E
:101D90000000000000000000000000000000000043
:101DA00001F07E0E0380700E07F8FF0700E01C03B1
:101DB00080700E01C0380700E01C03807000000036
:101DC0000000000000000000000000000000000013
:101DD00000000000000000000007B87FE3C78E0E7F
:101DE0007039C0E7039C0E7039C0E7038E0E387857
:101DF0007FE0F3800E003081C3FE0FE000000000A2
:101E0000000000000001C00E007003801C00E0070D
:101E10003C3BF1E3CE0E7073839C1CE0E70738393E
:101E2000C1CE0E7073839C1C0000000000000000F7
:101E300000000000000E38E00038E38E38E38E38F2
:101E4000E38E38E380000000000000000000000E78
:101E50000E0E00003E3E0E0E0E0E0E0E0E0E0E0E5E
:101E60000E0E0E0E0E1EFCF0000000000000000022
:101E70000001C00E007003801C00E0070F38F1C79E
:101E80000E707703F01F80FE077039C1CF0E3870D7
:101E9000E3879C1C00000000000000000000000020
:101EA000038E38E38E38E38E38E38E38E38E38E3E2
:101EB00080000000000000000000000000000000A2
:101EC0000000000000000000000000000000000012
:101ED000000000073C3C3BF3F1F3F3CF0F0E7070B2
:101EE0007383839C1C1CE0E0E70707383839C1C1C5
:101EF000CE0E0E70707383839C1C1C0000000000CB
:101F000000000000000000000000000000000000D1
:101F10000000000000000000000000073C3BF1E36F
:101F2000CE0E7073839C1CE0E7073839C1CE0E706B
:101F300073839C1C000000000000000000000000F3
:101F40000000000000000000000000000000000091
:101F50000000007C03FE0F1E1C1C701CE039C073C7
:101F600080E701CE039C071C1C3C783FE01F00006B
:101F70000000000000000000000000000000000061
:101F80000000000000000000000000000073C1FF1E
:101F900087871C1C7039C0E7039C0E7039C0E703AB
:101FA0009C1C78F1FF877C1C007001C007001C009E
:101FB0000000000000000000000000000000000021
:101FC000000000000007B87FE3C78E0E7039C0E73D
:101FD000039C0E7039C0E7038E0E38787FE0F380E3
:101FE0000E003800E003800E00000000000000003A
:101FF00000000000000000739DE7F9F0701C07016D
:10200000C0701C0701C0701C070000000000000029
:1020100000000000000000000000000000000000C0
:1020200000001F83FC78C7047007007E03FC0FE0EC
:102030001E00E40E61E7FC1F00000000000000002D
:1020400000000000000000000000001C0380700E73
:1020500007FCFF8700E01C0380700E01C0380700FA
:10206000E01E01F81F00000000000000000000005A
:102070000000000000000000000000000000000759
:10208000073839C1CE0E7073839C1CE0E7073839DE
:10209000C1CE1E79F1FB879C00000000000000000B
:1020A0000000000000000000000000000000000030
:1020B0000000000000000701C7070E0E1C1C1C706A
:1020C00038E071C07700EE01DC01F003E007800723
:1020D000000E0000000000000000000000000000F2
:1020E00000000000000000000000000000000000F0
:1020F0000000000000000000000000000070303907
:10210000C0E0E387870E1E1C387C70E331C18CC6AB
:102110000733981D86E0761B80D87C03C0F00F0340
:10212000C01C0F006018000000000000000000004C
:10213000000000000000000000000000000000009F
:10214000000000000000000000000701C707071C96
:102150000E380EE00F801F001C007C00F803B80E44
:10216000381C707071C0700000000000000000009A
:10217000000000000000000000000000000000005F
:102180000000000000000701C7070E0E1C1C1C7099
:1021900038E07B807700EE00F801F003E003800771
:1021A000001C003800F001C003800E000000000099
:1021B00000000000000000000000000000007FE7B9
:1021C000FE00E01C0380380700F00E01C01C0380F5
:1021D0007007FE7FE000000000000000000000002B
:1021E00000000000000003C07E03803801C00E0024
:1021F0007003801C00E00E00E01E00F001C007002C
:102200001C00E007003801C00E007001C00FC01EA6
:102210000000000000000000E0380E0380E0380EEF
:102220000380E0380E0380E0380E0380E0380E03B0
:1022300080E0380E0380E03800000000000000005D
:102240000001E00FC00E003801C00E007003801CBA
:1022500000E003800E003C01E01C01C01C00E00710
:10226000003801C00E00700701F80F0000000000E8
:10227000000000000000000000000000000000005E
:1022800000000000000000000000000000003C060C
:102290003F818C70670C31838C607E180F000000CA
:1022A000000000000000000000000000000000002E
:1022B000000000000000000000000000000000001E
:1022C00000000000078001E00078003F000FC0031D
:1022D000F001CE0073801CE00E1C038700E1C07F7C
:1022E000F81FFE070383C0F0E01C38071E01E7005B
:1022F00038000000000000000000000000000000A6
:102300000000000000000000003FFC7FF8E001C07A
:10231000038007000E001C003FF07FF0E0F1C0F3E7
:1023200080E701CE039C07381C7078FFE1FF0000B6
:10233000000000000000000000000000000000009D
:1023400000000000003FE07FF0E0F1C0E381C70340
:102350008E071C1C3FF07FF0E071C07380E701CE58
:10236000039C07381C7078FFE1FF000000000000AC
:10237000000000000000000000000000000000005D
:102380001FFE7FF9C007001C007001C007001C0081
:102390007001C007001C007001C007001C00700124
:1023A000C007000000000000000000000000000066
:1023B000000000000000000000000000001FF80303
:1023C000FF0070E00E1C01C3803870070E01C1C011
:1023D0003838070700E0E01C1C070380E0701C0E83
:1023E0000701C0E03838070FFFF9FFFF3800E700AA
:1023F0001CE0039C007000000000000000000000D2
:10240000000000001FFE7FF9C007001C007001C023
:1024100007001FFC7FF1C007001C007001C007000F
:102420001C007001FFE7FF800000000000000000BA
:10243000000000000000000000000000000000009C
:10244000000000000000F0381E7C1C1F0F0E1E0351
:10245000870E01C3870071C70038E3801C71C00775
:1024600039C001FFC000FFE000E73800F38E0071C3
:10247000C70070E1C0707070383838381C0E380EE4
:1024800003980700C00000000000000000000000EA
:10249000000000000000000000000000000000003C
:1024A0000007E03FF060F080E001C0038007001CFF
:1024B00003F007F000F000F000E001C00380072007
:1024C0001C7078FFE07F00000000000000000000AA
:1024D0000000000000000000000000000000700E7E
:1024E000701E701E703E703E706E706E70CE70CE3C
:1024F000718E718E730E730E760E760E7C0E7C0EC0
:10250000780E780E700E0000000000000000000041
:102510000000000018181C380FF007E00000700ED3
:10252000701E701E703E703E706E706E70CE70CEFB
:10253000718E718E730E730E760E760E7C0E7C0E7F
:10254000780E780E700E0000000000000000000001
:1025500000000000000000000000000000381E70B5
:102560007CE1E1C38387071C0E381CE039C07F0083
:10257000FE01CE038E071C0E1C1C1C383C7038E07C
:1025800039C0300000000000000000000000000022
:102590000000000000000000000000001FFE07FF18
:1025A00081C0E070381C0E070381C0E070381C0E3B
:1025B000070381C0E07038380E0E038380E0E038F6
:1025C000380E1C039E00E7003800000000000000E9
:1025D00000000000000000000000000000000000FB
:1025E0000000000003C01E7C07CF80F9F81F3B06E7
:1025F000E760DCE6339CC6739CCE71B1CE3E39C336
:10260000873870E7041CE0039C0073800E7001CED5
:102610000039C007000000000000000000000000BA
:102620000000000000000000000000000000700E2C
:10263000700E700E700E700E700E700E700E7FFEAB
:102640007FFE700E700E700E700E700E700E700E9B
:10265000700E700E700E0000000000000000000000
:10266000000000000000000000000000000000006A
:10267000001FC007FC03C1E0701C1C01C38038E0D0
:10268000039C0073800E7001CE0039C0073800E74C
:10269000001C70070E00E0E0381E0F01FF800FE005
:1026A000000000000000000000000000000000002A
:1026B000000000000000000000007FFE7FFE700EA2
:1026C000700E700E700E700E700E700E700E700E1A
:1026D000700E700E700E700E700E700E700E700E0A
:1026E000700E00000000000000000000000000006C
:1026F0000000000000000000003FE07FF0E0F1C0BB
:10270000E380E701CE039C07380E7038E0F1FFC389
:10271000FE07000E001C0038007000E001C0000041
:1027200000000000000000000000000000000000A9
:1027300000000000000003F007FC1E0E1C0638021B
:102740003800700070007000700070007000700041
:102750007000380038021C061E0E0FFC03F000004B
:102760000000000000000000000000000000000069
:102770000000000000000001FFFE7FFF8038000E17
:1027800000038000E00038000E00038000E0003805
:10279000000E00038000E00038000E00038000E01F
:1027A0000038000E000000000000000000000000E3
:1027B0000000000000000000000000000000000118
:1027C000E00E38070E01C1C0E070380E1E0387000E
:1027D00071C01CE003B800FC003F0007C001E0002E
:1027E00038001C000700038007E001E00000000043
:1027F00000000000000000000000000000000000D9
:1028000000000000000000000000000E000070004A
:102810001FF003FFE03CE783870E1C3871C1C1CE77
:102820000E0E70707383839C1C1CE0E0E3870E1C0B
:10283000387079CF01FFF003FE000380001C000018
:102840000000000000000000000000000000000088
:10285000000000000000000000000001C00E38076A
:10286000070381C0E03870073801CE003F000F80B9
:1028700001E00078003E000FC0073801CE00E1C043
:1028800070381C0E0E01C700380000000000000068
:102890000000000000000000000000000000000038
:1028A00000000001C038700E1C038700E1C03870C2
:1028B0000E1C038700E1C038700E1C038700E1C0C6
:1028C00038700E1C038700E1C038700E1FFFE7FF51
:1028D000F8000E00038000E0003800000000000057
:1028E00000000000000000000000700E700E700E6E
:1028F000700E700E700E700E700E700E700E381E10
:102900003FFE0FCE000E000E000E000E000E000E59
:10291000000E0000000000000000000000000000A9
:1029200000000000000000000000000000000000A7
:10293000381C0E70381CE07039C0E07381C0E703AA
:1029400081CE07039C0E07381C0E70381CE07039CE
:10295000C0E07381C0E70381CE07039C0E07381CDB
:102960000E70381CFFFFF9FFFFF0000000000000B0
:102970000000000000000000000000000000000057
:102980000000000000000000000000000000E070F7
:102990003870381C381C0E1C0E070E070387038185
:1029A000C381C0E1C0E070E0703870381C381C0E84
:1029B0001C0E070E0703870381C381C0E1C0E070CE
:1029C000E0703870381C3FFFFF9FFFFFC00000E041
:1029D00000007000003800001C0000000000000033
:1029E00000000000000000000000000003F0007E76
:1029F0000001C0003800070000E0001C0003800058
:102A00007FE00FFF01C0F0380F0700E0E01C1C035F
:102A1000838070701C0E0781FFE03FF00000000013
:102A200000000000000000000000000000000000A6
:102A3000000000000000000003800E7001CE00398D
:102A4000C0073800E7001CE0039C0073FE0E7FE126
:102A5000CE0E39C0E7381CE7039CE0739C0E7383ED
:102A60008E70F1CFFC39FE0700000000000000006E
:102A70000000000000000000000000000000000056
:102A80000000700070007000700070007000700036
:102A900070007FE07FF8703C701E700E700E700E3C
:102AA000700E701C703C7FF87FE00000000000009A
:102AB0000000000000000000000000000000000016
:102AC00000001FC07FF060784038001C001C000E22
:102AD000000E1FFE1FFE000E000E000E000E001C5A
:102AE000001C403860F07FE01F8000000000000004
:102AF00000000000000000000000000000000000D6
:102B000000000000000000000000E01FC0703FF067
:102B1000383C1E1C1C070E1C01C70E00E38E00393A
:102B2000C7001CFF800E7FC00738E0039C7001CEF9
:102B30003800E71C0073870071C38038E0E038700C
:102B4000783C380FF81C03F800000000000000007B
:102B50000000000000000000000000000000000075
:102B60000000000000000003FE07FF07838781C309
:102B700080E1C070E038701C1C0E0F0703FF807FDF
:102B8000C038E03C703C383C1C1C0E1E071E039EE7
:102B900001C0000000000000000000000000000074
:102BA0000000000000000000000000000000000124
:102BB000F81FF083C00E00703F87FC78E787383934
:102BC000C1CE0E78F1FB879C0000000000000000E1
:102BD0000000000000000000000000003E03FC1F99
:102BE000003800E001C0033E0FFE1F1E381C701CA1
:102BF000E039C07380E701CE038E061C1C1C703FB9
:102C0000C01F0000000000000000000000000000E5
:102C100000000000000000000000000000000007AD
:102C2000F83FF1C38E1C70E3861FE0FFC70F3839F1
:102C3000C1CE0E70F3FF1FE0000000000000000096
:102C40000000000000000000000000000000000084
:102C500007FCFF9C0380700E01C0380700E01C03D6
:102C600080700E01C00000000000000000000000A5
:102C70000000000000000000000000000000000054
:102C80000000000007F807F807380738073807384A
:102C90000E380E380E380E381C381C3838387FFE87
:102CA0007FFE700E700E700E700E000000000000AF
:102CB0000000000000000000000000000000000014
:102CC0000007C07F83C70E0E7039C0E7FF9FFE70FC
:102CD00001C007000E023C187FE07E0000000000EB
:102CE00000000000000000000000000000000000E4
:102CF00000000000000000000000000000000000D4
:102D000000000007070F3E38F871C7038E380E73B6
:102D100080739C03DDE00FFC007FF00739C039CEE3
:102D2000038E383870E38383981C0C000000000089
:102D30000000000000000000000000000000000093
:102D4000000000000000000000000001F81FF083F8
:102D5000C00E00700703F01F800E003801C80E601F
:102D6000F3FF07E00000000000000000000000008A
:102D7000000000000000000000000000000000074C
:102D8000073839C3CE1E71F38B9CDCE4E7673A3910
:102D9000F1CF0E7873839C1C00000000000000003F
:102DA00000000000000000001830C1871C1FC07C1C
:102DB00000000007073839C3CE1E71F38B9CDCE49A
:102DC000E7673A39F1CF0E7873839C1C000000004E
:102DD00000000000000000000000000000000000F3
:102DE00000000000000000071E39F1CE0E70738352
:102DF0009C1DC0FC07E03B81CE0E3871C3871C1CB4
:102E000000000000000000000000000000000000C2
:102E1000000000000000000000000000000000FFB3
:102E2000C1FF8387070E0E1C1C38387070E0E1C1AB
:102E3000C387070E0E1C1CF039C070000000000094
:102E40000000000000000000000000000000000082
:102E5000000000000000000000000783CF079E0F65
:102E60003E3E7C7CECB9DB7394E739CE739C4738EB
:102E70000E701CE039C0700000000000000000006F
:102E80000000000000000000000000000000000042
:102E900000000007073839C1CE0E7073839FFCFF16
:102EA000E7073839C1CE0E7073839C1C0000000008
:102EB0000000000000000000000000000000000012
:102EC00000000000000000000000007C03FE0F1E58
:102ED0001C1C701CE039C07380E701CE039C071CEA
:102EE0001C3C783FE01F00000000000000000000D4
:102EF00000000000000000000000000000000000D2
:102F000000000007FF3FF9C1CE0E7073839C1CE0E8
:102F1000E7073839C1CE0E7073839C1C0000000097
:102F200000000000000000000000000000000000A1
:102F300000000000000000000073C1FF87871C1C18
:102F40007039C0E7039C0E7039C0E7039C1C78F110
:102F5000FF877C1C007001C007001C0000000000FF
:102F6000000000000000000000000000000007C199
:102F7000FE3C6382700700700700700700700382D8
:102F80003C61FE07C00000000000000000000000DF
:102F90000000000000000000000000000000000031
:102FA000000007FFCFFF80E001C0038007000E0094
:102FB0001C0038007000E001C0038007000E000014
:102FC0000000000000000000000000000000000001
:102FD00000000000000000000000000000000701E9
:102FE000C7070E0E1C1C1C7038E07B807700EE00BB
:102FF000F801F003E0038007001C003800F001C076
:1030000003800E000000000000000000000000002F
:103010000000000001C0000E000070000380001CD2
:103020000000E000F7780FFFE0F1C3870E1C70701E
:103030007383839C1C1CE0E0E70707383839C1C163
:10304000C70E1C3C71E0FFFE03DDE000E00007005E
:1030500000380001C0000E00000000000000000069
:103060000000000000000000000000000000070158
:10307000C707071C0E380EE00F801F001C007C00E5
:10308000F803B80E381C707071C0700000000000AA
:103090000000000000000000000000000000000030
:1030A00000000000000000000070E1C3870E1C3823
:1030B00070E1C3870E1C3870E1C3870E1C3870E1C5
:1030C000FFE7FF800E003800E003800000000000F2
:1030D00000000000000000000000000000000000F0
:1030E000007039C0E7039C0E7039C0E7039E0E3FA5
:1030F000F87EE003800E003800E00380000000004E
:1031000000000000000000000000000000000000BF
:1031100000000000000000000000000000000000AF
:10312000070E1CE1C39C3873870E70E1CE1C39C3B7
:10313000873870E70E1CE1C39C3873870E70E1CFAF
:10314000FFF9FFFF00000000000000000000000089
:10315000000000000000000000000000000000006F
:103160000000000000000000000000000000000758
:103170000E1C3870E1C3870E1C3870E1C3870E1C2B
:103180003870E1C3870E1C3870E1C3870E1C38709D
:10319000E1C3FFFF9FFFFC0000E0000700003800D4
:1031A00001C000000000000000000000000000005E
:1031B0000000000000000000000007E00FC00380D6
:1031C00007000E001C003FC07FC0E3C1C383870718
:1031D0000E0E3C1FF03F80000000000000000000C9
:1031E00000000000000000000000000000000000DF
:1031F0000000000000000000000700738039C01CC0
:10320000E00E700738039FE1CFF8E71E738739C3DC
:103210009CE1CE71E73FE39FC1C0000000000000C9
:10322000000000000000000000000000000000009E
:103230000000000000000007003801C00E0070030D
:10324000801FF0FFC70F3839C1CE0E70F3FF1FE0AB
:10325000000000000000000000000000000000006E
:10326000000000000000000000000001F03FE187C6
:10327000881C00700387FC3FE007003801C81C6110
:10328000C3FE0FC0000000000000000000000000AE
:10329000000000000000000000000000000000002E
:1032A00000000000000000000000703E070FF871F1
:1032B000E3C71C1C7380E7380E7F80E7F80E73802D
:1032C000E7380E7380E71C1C71E3C70FF8703E00EF
:1032D00000000000000000000000000000000000EE
:1032E00000000000000000000000000000000000DE
:1032F0000007F87FE3C38E0E3838E0E3C387FE078C
:10330000F81CE0E3870E1C38E0E7038000000000B3
:10331000000000000000200044007000B800F4002D
:103320005C01A401BC01E4010C0244028C02AC0269
:10333000D802F80228036403A003DC031804540431
:103340009004CC04080544058005A805D0051006A6
:1033500054069406C80624076C07A807E8072C083B
:1033600064089C08E408240950097C09BC09F00998
:103370003C0A7C0AC80A040B500B940BD00B100CAF
:10338000500C980C000D480D8C0DC80DF00D200E42
:10339000480E900ED00EF80E2C0F640F940FCC0F29
:1033A0000410301068109C10B410D41008112011B3
:1033B0007411A811E4111C1254127C12AC12D81210
:1033C0000C134813A013DC13181448147C14A41411
:1033D000D81420156815A415E015181664169C1647
:1033E00000173C177C17BC17F81740188C18CC181E
:1033F000181958199419D4191C1A641AB81A001BF0
:10340000481B881BE41B481C941CE01C201D601DED
:10341000C41D081E3C1E781EAC1ED81E181F501F4F
:10342000A41FD81F0C2040207420B020EC202021A5
:103430005C219021C821F82134227022C42200236B
:1034400038237023BC2310244C249024C424F82453
:103450004825802508090B120F1A12060A0A0E12B7
:10346000080B080C0F0F0F0F0F0F0F0F0F0F0A0A8B
:103470001011100D17120F10110E0E12100B0B1051
:103480000D1310130F13110F1010121A12110F0A2F
:103490000C0A12100A0D0E0C0E0E0B0E0D06080D66
:1034A00006150D0F0E0E0A0C0B0D0F160F0F0C0D3F
:1034B0000A0D12120F0F0E130E190F10100F121308
:1034C0001013100F101212151212101719131310D7
:1034D0001019110D0F0D0B100E150D0D0D0D0F0FF9
:1034E0000D0F0D0E0C0F0F150F0E0E13150F110DE6
:1034F0000D140E000000000000000000000000009D
:1035000000000000000000000000000000000000BB
:10351000000000000102030405060708090A0B0C5D
:103520000D0E0F101112131415161718191A1B1C53
:103530001D1E1F202122232425262728292A2B2C43
:103540002D2E2F303132333435363738393A3B3C33
:103550003D3E3F404142434445464748494A4B4C23
:103560004D4E4F505152535455565758595A5B5C13
:103570005D5E000000000000000000000000000090
:10358000000000000000000000000000000000003B
:10359000000000000000000000000000000000002B
:1035A000000000000000000000000000000000001B
:1035B0000000005F606162636465666768696A6BEA
:1035C0006C6D6E6F707172737475767778797A7BC3
:1035D0007C7D7E7F808182838485868788898A8BB3
:1035E0008C8D8E8F909192939495969798999A9BA3
:1035F0009C9D9EA603AA03B003B5030011241FBE21
:10360000CFE5D8E0DEBFCDBF15E0A0E6B0E0E4EA4C
:10361000FCE602C005900D92A032B107D9F715E083
:10362000A0E2B5E001C01D92A737B107E1F70E9403
:10363000192E0C9450360C940000DD98DC9885BB54
:10364000DC9A0895DD9ADC9885BBDC9A0895DD9AB2
:10365000DC9885BBDC9ADC9865BBDC9A0895DD9A22
:10366000DC9ADB98DB9A83B30895962F9295969512
:103670009770887F982B9093300570E06C71707014
:1036800083E0660F771F8A95E1F746954695469544
:10369000462B409331050895909330058093310572
:1036A00008959091300580E02091310530E0282B7D
:1036B000392BC9010895962F929596959770887F1A
:1036C000982B9093450570E06C71707093E0660FD5
:1036D000771F9A95E1F7469546954695462B409378
:1036E0003B0508959093450580933B05089590917F
:1036F000450580E020913B0530E0282B392BC9019E
:103700000895AF92BF92CF92DF92EF92FF920F9304
:103710001F93F82E192FE62E072FB42ED52EA22E8A
:10372000C32E8AE20E941D1B812F6F2D0E94271B32
:10373000802F6E2D0E94271B8BE20E941D1B8D2D5A
:103740006B2D0E94271B8C2D6A2D0E94271B8CE25B
:103750000E941D1B1F910F91FF90EF90DF90CF9063
:10376000BF90AF900895782FDD9A80E090E0A0E0C0
:10377000B0E009C0DC9875BBDC9ADC9865BBDC9ACC
:103780000196A11DB11D82179307A407B50790F3F9
:103790000895DE9880E090E06FE371E040E050E053
:1037A0002FED31E00E94811B8091450560913B0522
:1037B00020E038E542E050E00E94B31BDE9A089515
:1037C000D79AD69AD59AD49AD39ADF9ADE9ADD9A66
:1037D000DC9ADB9A8FEF84BBDE9881E00E941D1B90
:1037E00080ED97E020E931E0F9013197F1F7019799
:1037F000D9F78AE30E941D1B85E50E94221B83E105
:103800000E941D1B80E20E941D1B84E30E941D1B61
:1038100086E30E941D1B88E40E94221B81E10E9416
:103820001D1B80ED97E020E931E0F9013197F1F7B8
:103830000197D9F789E20E941D1BDE9A8FEF8093D2
:103840003005809331051092450510923B050E948A
:10385000C91B08950F931F93DF93CF93CDB7DEB7A6
:1038600029970FB6F894DEBF0FBECDBF09831A8328
:103870002B833C834D835E836F8378878987A2E3A4
:10388000B5E0FE01319689E001900D928150E1F79B
:1038900029960FB6F894DEBF0FBECDBFCF91DF9152
:1038A0001F910F910895BF92CF92DF92EF92FF92F6
:1038B0000F931F93CF93DF93DB01E0913605F091D7
:1038C0003705E80FF11DE4912E2F30E0C901880F74
:1038D000991FE0913405F0913505E80FF91F8591A6
:1038E00094910091320510913305080F191FE09152
:1038F0003805F0913905E20FF31FB490C0903A05F6
:103900007D01EB0CF11CB701615070402C2D30E0B3
:1039100021503040240F351FCD010E94811BE8014A
:103920002196F801149108E019C0002321F4FE014A
:103930002196149108E017FF05C080913005609131
:10394000310504C08091450560913B050E94271B0D
:10395000110F0150DA94DD2041F7CA94CC2011F008
:10396000DB2CF9CFC701DF91CF911F910F91FF9011
:10397000EF90DF90CF90BF900895EF92FF921F934A
:10398000CF93DF937C01EA01DE9810E005C01F5F52
:10399000AE010E94531CBC01F701E10FF11D8081B3
:1039A0008823A9F7DE9ACB01DF91CF911F91FF9079
:1039B000EF9008954F925F926F927F928F929F92B5
:1039C000AF92BF92CF92DF92EF92FF920F931F932D
:1039D0002C014B013A016901DE980E94811BC61837
:1039E000D7080894C11CD11CEE24FF248418950824
:1039F0000894811C911CAA24BB24C701B601A5010F
:103A000094010E94C1359B01AC01812F602F0E945F
:103A1000B31BDE9A1F910F91FF90EF90DF90CF9034
:103A2000BF90AF909F908F907F906F905F904F90DE
:103A30000895479AB898C09AD098D89AD29ADA98A6
:103A4000BA9AC298D19AD998899891988A98929856
:103A50008B9893988C9894988D9895988E9A969A1E
:103A60008F9A9798B99AC198BB9AC39880B7836088
:103A700080BF89B7806189BF1DBC1CBC1FBC84E0AE
:103A80008EBD84EF8BBD84E28ABD89B7806489BF17
:103A9000789408951F920F920FB60F9211248F936E
:103AA0001DBC1CBC809120058160809320058F91F6
:103AB0000F900FBE0F901F9018951F920F920FB688
:103AC0000F9211248F9380912205815080932205BB
:103AD00080912205882331F415BC809120058B7FCD
:103AE000809320058F910F900FBE0F901F90189517
:103AF0008091200582FD26C0B09906C0C89904C0F7
:103B00008091210581600BC0B09904C0809121058E
:103B1000826005C0C8990AC08091210584608093A5
:103B20002105809120058260809320058AE08093A2
:103B3000220514BC85B5876085BD80912005846011
:103B4000809320050895833039F410922A0510924D
:103B5000290564E071E045C0823039F4609129059F
:103B600070912A05665F7F4F2DC08130E9F4809106
:103B7000290590912A05860F971F8B3F910540F0EC
:103B80008091290590912A056AEF70E0681B790BF6
:103B90008091290590912A05860F971F90932A05F9
:103BA0008093290581E01EC08823D9F480912905DE
:103BB00090912A05861B970B97FF09C060912905F4
:103BC00070912A0510922A05109229050AC0809149
:103BD000290590912A05861B970B90932A058093BF
:103BE000290580E0DA9A813009F05CC029C0809113
:103BF0002805813071F0813028F0823089F08330DF
:103C0000E1F415C0C29AC9010197F1F7E0932805C4
:103C100014C0D998C9010197F1F7109228050DC079
:103C2000D99AC9010197F1F75093280506C0C298A7
:103C3000C9010197F1F7409328056150704005C014
:103C400020E23EE4E2E053E041E06115710579F6DF
:103C500031C080912805813071F0813028F08230A8
:103C600089F08330E1F415C0D99AC9010197F1F7C1
:103C70005093280514C0C29AC9010197F1F7E09347
:103C800028050DC0C298C9010197F1F710922805C7
:103C900006C0D998C9010197F1F7409328056150F2
:103CA000704005C020E23EE4E3E051E042E06115EF
:103CB000710579F6DA980895969880E120E030E071
:103CC00006C0979A220F331F8599216097988150DB
:103CD000C0F7969AC90186709078892B21F080E010
:103CE00090E022E00DC0C90125E0969587952A95C0
:103CF000E1F723E0883E920710F023E001C021E0C5
:103D0000209325059093270580932605089521E3A8
:103D100030E030935A052093590540E350E050932A
:103D2000490540934805833081F08430C1F08230EA
:103D300011F031E01DC030935A052093590550937E
:103D400049054093480532E013C030935A0520934B
:103D50005905509349054093480533E009C0309315
:103D60005A0520935905509349054093480534E07E
:103D700081B361E070E0032E02C0660F771F0A94E2
:103D8000E2F7262F462F4095842381BB80B390E035
:103D900002C0959587953A95E2F780FF2BC081B3D5
:103DA000282B21BB80ED97E00197F1F7E0915905B1
:103DB000F0915A0580814823408380EF90E001977D
:103DC000F1F7E0914805F091490520EF35E009C091
:103DD000832F8A95F1F7808190E086239723892BA2
:103DE00019F02150A8F706C080E897E00197F1F795
:103DF00080E0089581E008951F93CF93DF9321E33E
:103E000030E030935A052093590540E350E0509339
:103E1000490540934805833081F0843041F1823078
:103E200011F081E013C030935A0520935905509347
:103E300049054093480582E009C030935A05209314
:103E40005905509349054093480583E021E030E04F
:103E500002C0220F331F8A95E2F7A22F722F7095AE
:103E600058E040E015E0B5E3C8E6D1E03AC0309351
:103E70005A0520935905509349054093480584E01D
:103E8000E5CFE0915905F0915A0580818A2B808316
:103E9000812F8A95F1F760FF07C0E0915905F091F5
:103EA0005A058081872380838B2F8A95F1F7469569
:103EB000E0914805F0914905808190E082239323A9
:103EC000892B09F040686695CE010197F1F7E091E2
:103ED0005905F0915A058081872380838B2F8A951D
:103EE000F1F7515070F6842FDF91CF911F91089513
:103EF000282F98E048E10BC0862F8227382F317099
:103F000080FD64276695313009F4606826959150EC
:103F100098F7862F08950F931F93CF93DF93082F61
:103F200010E0C0E0D0E0802F6FEF0E94FC1EFE0189
:103F3000E65BFA4F8083612F0E94781F182F21962D
:103F4000C930D10581F7682F811161E0862FDF919B
:103F5000CF911F910F9108951F93182F0E94871ED4
:103F60008823C1F0123069F0133018F41130D1F405
:103F700005C0133049F01430A9F409C010925B0554
:103F800011C0109275050EC0109273050BC01092EF
:103F9000720508C0812F6CEC0E94FC1E812F64E426
:103FA0000E94FC1E1F9108951F93182F0E94871EC8
:103FB000882319F5812F6CEC0E94FC1E812F6EEB7B
:103FC0000E94FC1E812F0E948B1F8823B1F4209138
:103FD0004B0530914A05722F60E0630F711D8827F1
:103FE00077FD8095982F0E94A13220E030E040E8D4
:103FF0005DE30E94173121E005C060E070E080E0E1
:1040000090E020E01230A9F0133018F4113089F557
:1040100005C01330C9F0143061F521C020935B0551
:1040200060935405709355058093560590935705FA
:1040300020C020937505609361057093620580939D
:1040400063059093640515C02093730560936D0517
:1040500070936E0580936F05909370050AC020934E
:104060007205609368057093690580936A05909363
:104070006B051F910895CF92DF92EF92FF920F93FD
:104080001F93DF93CF93CDB7DEB72A970FB6F8947F
:10409000DEBF0FBECDBFFC017B016A0160E177E2AC
:1040A0000E94EC35662319F420E040E004C0605D16
:1040B000698321E041E0CF0160E177E20E94EC35C5
:1040C000382F192F68EE73E00E94EC35662341F01B
:1040D000FE01E40FF11D605D61834F5F21E00AC0C6
:1040E000213011F020E006C0FE01E40FF11D80E355
:1040F00081834F5F832F912F68EE73E00E94EC3530
:10410000382F192F64E670E00E94EC35662341F0E9
:10411000FE01E40FF11D605D61834F5F21E00AC085
:10412000213011F020E006C0FE01E40FF11D80E314
:1041300081834F5F832F912F64E670E00E94EC35FE
:10414000182F092F6AE070E00E94EC35662331F0E9
:10415000FE01E40FF11D605D618307C0213031F481
:10416000FE01E40FF11D80E381834F5F9E012F5F0D
:104170003F4FF901E40FF11D812F902F6AE070E0AD
:104180000E94EC35805D80834F5FF901E40FF11DE3
:104190001082C901B701A6010E94BD1C2A960FB664
:1041A000F894DEBF0FBECDBFCF91DF911F910F916D
:1041B000FF90EF90DF90CF9008950F931F93DF93C0
:1041C000CF93CDB7DEB72A970FB6F894DEBF0FBEF8
:1041D000CDBF382F8B0164E60E94E035882319F4A7
:1041E00020E0A0E004C0805D898321E0A1E0832F6E
:1041F00064E60E94E035B92F892F6AE00E94E0351D
:10420000882329F0FE01EA0FF11D805D06C02130F0
:1042100031F4FE01EA0FF11D80E38183AF5F9E015F
:104220002F5F3F4FF901EA0FF11D8B2F6AE00E94CB
:10423000E035905D9083AF5FF901EA0FF11D1082C8
:10424000C901B8010E94BD1C2A960FB6F894DEBFC2
:104250000FBECDBFCF91DF911F910F910895EF92C7
:10426000FF920F931F9380917105882319F4A7E0A3
:10427000EA2EC2C080912505813009F0B8C0809136
:104280007505813009F0B3C080917305813009F064
:10429000AEC080917205813009F0A9C0E09061053F
:1042A000F0906205009163051091640560916C05C2
:1042B00070E0882777FD8095982F0E94A1329B019E
:1042C000AC01C801B7010E94113288231CF0F3E051
:1042D000EF2E92C0E0906D05F0906E0500916F0595
:1042E000109170056091580570E0882777FD8095E2
:1042F000982F0E94A1329B01AC01C801B7010E9416
:10430000113288231CF0E4E0EE2E76C020912605C1
:10431000309127058091670590E00A9782179307EF
:1043200018F0EE24E39468C080911504863091F073
:104330008091200584FD04C08091200585FF0DC07B
:10434000809120058F7E80932005809120058F7DB0
:104350008093200576E0E72E4FC0809115048330CE
:10436000D9F4E0906105F090620500916305109129
:10437000640560916C0570E062507040882777FD9D
:104380008095982F0E94A1329B01AC01C801B70112
:104390000E94413287FD2EC0809115048430D9F4EB
:1043A000E0906D05F0906E0500916F05109170051D
:1043B0006091580570E06A507040882777FD8095BD
:1043C000982F0E94A1329B01AC01C801B7010E9445
:1043D000413287FD0FC0209126053091270580913D
:1043E000670590E08217930728F0EE2405C065E08A
:1043F000E62E02C052E0E52E80911504E81609F47D
:1044000029C20091690010916A0020916B003091DF
:104410006C0040916D0050916E0060916F00709142
:104420007000809171000E942A1C8FEF9FEF0E9404
:104430004C1B88E790E06DE371E04FE251E020E52E
:1044400031E000E010E00E94DA1C82E090E06DE3D1
:1044500071E044E551E028EA31E00E94DA1C82E094
:1044600090E068E670E04BEA51E02DED31E00E940B
:10447000DA1C8BE690E061ED70E04BEA51E02DED47
:1044800031E00E94DA1C84ED90E06DE371E04BEACC
:1044900051E02DED31E00E94DA1C82E790E06CE003
:1044A00070E044EB51E00E94BD1C83E0E81609F483
:1044B0007CC08E1520F081E08E1588F425C085E043
:1044C000E81609F4C2C0E81608F496C086E0E816BB
:1044D00009F4F5C087E0E81609F05AC32DC188E752
:1044E00090E068E770E04FE251E00E94BD1C82E07E
:1044F00090E06DE371E044E551E028EA31E000E04E
:1045000010E00E94DA1C44C381E890E068E770E0A4
:104510004FE251E00E94BD1C0091690010916A00B9
:1045200020916B0030916C0040916D0050916E00B5
:1045300060916F0070917000809171000E942A1C40
:1045400089E890E063E770E04CEA51E00E94BD1C0E
:1045500089E890E06EED70E04CEA51E00E94BD1CED
:104560000091600010916100209162003091630021
:104570004091640050916500609166007091670001
:10458000809168000E942A1C8FE890E063E970E047
:104590004CEC51E00E94BD1C84E990E06CEF70E0AF
:1045A0004CEC51E00E94BD1C16C188E990E068E720
:1045B00070E04FE251E00E94BD1C00916900109133
:1045C0006A0020916B0030916C0040916D00509119
:1045D0006E0060916F0070917000809171000E9478
:1045E0002A1C80EE9FEF0E944C1B83EA90E065E05E
:1045F00070E045E751E060C088E990E068E770E06E
:104600004FE251E00E94BD1C0091690010916A00C8
:1046100020916B0030916C0040916D0050916E00C4
:1046200060916F0070917000809171000E942A1C4F
:1046300080EE9FEF0E944C1B84EB90E065E070E001
:1046400045E551E00E94BD1CA8C28BEC90E068E7F4
:1046500070E04FE251E00E94BD1C80912505813041
:1046600069F480917505813049F48091730581303A
:1046700029F480917205813009F4D2C0009169005B
:1046800010916A0020916B0030916C0040916D0098
:1046900050916E0060916F00709170008091710078
:1046A0000E942A1C80E098EF0E944C1B82ED90E053
:1046B0006FE070E045E551E00E94BD1CB1C089E8A3
:1046C00090E068E770E04FE251E00E94BD1C00916D
:1046D000690010916A0020916B0030916C0040914C
:1046E0006D0050916E0060916F007091700080912C
:1046F00071000E942A1C89EE90E065EE70E04CEAA1
:1047000051E00E94BD1C0091600010916100209159
:1047100062003091630040916400509165006091A7
:10472000660070916700809168000E942A1C89E8E9
:1047300090E062EF70E04CC08EEE90E068E770E0D1
:104740004FE251E00E94BD1C0091690010916A0087
:1047500020916B0030916C0040916D0050916E0083
:1047600060916F0070917000809171000E942A1C0E
:1047700085EF90E06DE770E04CEA51E00E94BD1CCF
:104780008AEF90E068EE70E04CEA51E00E94BD1CB8
:1047900000916000109161002091620030916300EF
:1047A00040916400509165006091660070916700CF
:1047B000809168000E942A1C8FEF90E06EE870E004
:1047C0004CEC51E00E94BD1C8FEF90E067EF70E071
:1047D0004CEC51E071CF82E060E070E00E94A31DDC
:1047E0006091660570E080E090E00E94533320E025
:1047F00030E040E250E40E9417310E94412F9B01BB
:10480000AC0181E0622F70E00E94A31D80916005E1
:1048100090E090932E0580932D0510922F05BDC139
:1048200082E060E070E00E94A31D86E0E81609F0D7
:10483000B8C1809146052CE3829FC00111240196E6
:1048400090932C0580932B0582E060E070E00E943D
:10485000A31DA7C180911504813009F063C0809128
:104860007405813009F060C00091690010916A0000
:1048700020916B0030916C0040916D0050916E0062
:1048800060916F0070917000809171000E942A1CED
:10489000E0906805F090690500916A0510916B053C
:1048A0006091470570E0882777FD8095982F0E94DA
:1048B000A1329B01AC01C801B7010E9471321816E8
:1048C00014F0B39BC39AE0906805F09069050091DD
:1048D0006A0510916B0560915C0570E0882777FD93
:1048E0008095982F0E94A1329B01AC01C801B701AD
:1048F0000E941132882314F0B399C398B39B07C068
:1049000080E098EF0E944C1B85E091E006C080E0BB
:1049100094E00E944C1B84E191E065E070E045E585
:1049200051E033C1B399C39880911504823009F0E6
:10493000BFC0809126059091270520916005409188
:104940005E0530E0241B31098217930710F050E018
:1049500016C020912D0530912E058091600590E0C4
:104960008217930758F48091600520915E0590E0CE
:10497000821B910990932E0580932D0551E0809123
:104980002605909127052091600540915E0530E055
:10499000240F311D2817390710F010E016C02091A0
:1049A0002D0530912E058091600590E0281739077C
:1049B00058F48091600520915E0590E0820F911D72
:1049C00090932E0580932D0511E080912F0588236B
:1049D00069F420912605309127058091600590E0CB
:1049E0002817390718F081E080932F055523D1F05F
:1049F000209126053091270580912D0590912E0557
:104A000002978217930770F08091260590912705F1
:104A100090932E0580932D0560915D0581E070E0F7
:104A20000E94A31D1123D1F0209126053091270566
:104A300080912D0590912E0502962817390770F068
:104A4000809126059091270590932E0580932D0542
:104A500060915D0580E070E00E94A31D8091760565
:104A6000813031F580912F05813011F52091260597
:104A7000309127058091530590E082179307C0F08D
:104A800023E040E951E010C0C19A88EE93E0FA01BA
:104A90003197F1F70197D9F7C19888EE93E0FA01C1
:104AA0003197F1F70197D9F7215070F710922F0540
:104AB000809115048530E1F4809116048130C1F4B1
:104AC00025E040E951E010C0C19A88E893E1FA017D
:104AD0003197F1F70197D9F7C19888E893E1FA0186
:104AE0003197F1F70197D9F7215070F7109216041A
:104AF00080911504863009F056C080912B05909165
:104B00002C05019790932C0580932B0580912B0504
:104B100090912C05892B21F08091200586FF07C0FC
:104B200010921504809120058F7B809320050091C1
:104B3000600010916100209162003091630040910B
:104B400064005091650060916600709167008091EB
:104B500068000E942A1C80EE9FEF0E944C1B84E29A
:104B600091E066E470E040E951E00E94BD1CBC01A8
:104B700080912B0590912C0540E951E00E94DD20A9
:104B8000BC0186E391E040E951E00E94BD1C0BC0EE
:104B900082E0E81609F044CE1ECE82E0E81609F065
:104BA0003FCEE09215041F910F91FF90EF90089572
:104BB0000F931F9380E090E06FE371E04BE650E0CD
:104BC00029E131E000E010E00E94DA1C0091690068
:104BD00010916A0020916B0030916C0040916D0043
:104BE00050916E0060916F00709170008091710023
:104BF0000E942A1C8FEF97E00E944C1B8091230596
:104C0000873009F456C0883080F48330B9F184309D
:104C100028F4813069F1823070F520C0853009F4C4
:104C200042C0863008F042C032C08B3009F45BC00D
:104C30008C3038F4893009F442C08A3008F049C019
:104C40003BC08D3009F45EC08D3008F44FC08E300B
:104C500009F45BC08F3009F073C063C080917105A7
:104C6000813019F480E491E04AC08FE491E047C0BC
:104C700080915F0505C080915E0549C080915D050A
:104C800064E670E04BE850E00E94DD2059C080915E
:104C9000660564E670E04BE850E00E94DD20BC0150
:104CA00089E591E049C08091600531C08091580547
:104CB0002EC080916C052BC08091670528C0809123
:104CC0006505813019F48BE591E019C08AE691E021
:104CD00016C080917605813019F486E791E00FC007
:104CE0008FE791E00CC08091530511C0809174054D
:104CF000813019F489E891E002C081E991E069E12D
:104D000070E01AC08091470502C080915C0564E69E
:104D100070E04BE850E00E94DD20BC0186E591E0A8
:104D20000BC08091460564E670E04BE850E00E94BD
:104D3000DD20BC018AE991E04BE850E00E94BD1CF7
:104D40001F910F9108950F931F9300916900109187
:104D50006A0020916B0030916C0040916D00509181
:104D60006E0060916F0070917000809171000E94E0
:104D70002A1C8FEF9FEF0E944C1B8091200583FD22
:104D800059C080E090E06FE371E040E050E02BE23A
:104D900031E000E010E00E94DA1C8FE991E065E567
:104DA00070E045E050E00E94BD1C85E090E065E3C6
:104DB00071E046E250E028E230E00FEF1FEF0E9482
:104DC000DA1C82E090E068E670E04BEA51E02DEDFD
:104DD00031E000E010E00E94DA1C8BE690E061ED2B
:104DE00070E04BEA51E02DED31E00E94DA1C84EDD9
:104DF00090E06DE371E04BEA51E02DED31E00E946F
:104E0000DA1C89EA91E06CE070E044EB51E00E942A
:104E1000BD1C8FEA91E063E970E044EB51E00E9431
:104E2000BD1C81EB91E062E071E044EB51E00E9437
:104E3000BD1C0CC080E090E06FE371E049E250E0FF
:104E400029E131E000E010E00E94DA1C80912305A6
:104E5000873009F479C0883088F4833009F448C079
:104E6000843028F4813071F18230B8F520C085306B
:104E700009F454C0863008F05CC045C08B3009F49A
:104E80008DC08C3038F4893009F474C08A3008F051
:104E900078C065C08D3009F499C08D3008F48BC09E
:104EA0008E3009F496C08F3009F0AEC09DC083EB00
:104EB00091E062E070E04BE250E00E94BD1C86ECA5
:104EC00091E09CC08EED91E062E070E04BE250E03A
:104ED0000E94BD1C8DEE91E091C08DEF91E062E0EB
:104EE00070E04BE250E00E94BD1C85E192E086C07C
:104EF0008EED91E062E070E04BE250E00E94BD1C5C
:104F000086E292E07BC081E392E062E070E04BE2F7
:104F100050E00E94BD1C85E492E070C083E592E001
:104F200062E070E04BE250E00E94BD1C85E692E03A
:104F300032C08EE692E062E070E04BE250E00E9408
:104F4000BD1C80E892E05AC08EE692E062E070E01C
:104F50004BE250E00E94BD1C85E992E01CC08DE947
:104F600092E062E070E04BE250E00E94BD1C82EBF8
:104F700092E044C083EC92E062E070E04BE250E0EB
:104F800041C086ED92E062E070E04BE250E00E94AA
:104F9000BD1C8EEE92E062E370E032C086EF92E0DC
:104FA00062E070E04BE250E00E94BD1C8CE093E0B8
:104FB00069E170E025C08FE193E062E070E04BE2D0
:104FC00050E00E94BD1C87E393E018C08DE493E09D
:104FD00002C087E793E062E070E04BE250E00E949D
:104FE000BD1C83E693E00AC08EE893E062E070E0C7
:104FF0004BE250E00E94BD1C80EA93E062E070E06A
:105000004BE450E00E94BD1C0E94D8251F910F91D7
:1050100008958091200583FF03C08AE080932405D2
:105020008091210580FF56C08091200583FD0DC031
:10503000109223058AE0809324050E94A326809184
:10504000200588608093200540C080912305882337
:1050500031F480917105813011F482E02CC080918F
:105060002305813031F480917105882311F489E0A2
:1050700022C080912305893039F4809171058823FD
:1050800019F41092230519C0809123058A3031F458
:1050900080917605882311F48CE00DC08091230562
:1050A0008C3031F480917405882311F48FE003C0B3
:1050B000809123058F5F80932305809123058031A4
:1050C00011F4109223050E94A326809121058E7F62
:1050D000809321058091210581FFEAC08091200500
:1050E00083FFCDC080912305873009F472C08830DA
:1050F00088F4833009F441C0843028F4813039F1D8
:10510000823080F520C0853009F44DC0863008F02B
:1051100055C03EC08B3009F47AC08C3038F48930E9
:1051200009F46DC08A3008F06EC05EC08D3009F49D
:105130007CC08D3008F475C08E3009F48AC08F3081
:1051400009F09AC090C081E08093710595C080916C
:105150005F05893109F490C080915F058F5F80936E
:105160005F058AC080915E05843109F485C0809115
:105170005E058F5F80935E057FC080915D058931FC
:1051800009F47AC080915D058F5F80935D0574C0DE
:1051900080916605823309F46FC0809166058F5F48
:1051A0008093660569C0809160058F3F09F464C0F3
:1051B000809160058B5F809360055EC0809158058B
:1051C0008F3509F459C0809158058F5F8093580539
:1051D00053C080916C058C3109F44EC080916C05F0
:1051E0008F5F80936C0548C080916705863409F411
:1051F00043C0809167058B5F809367053DC081E068
:105200008093650539C081E08093760535C0809133
:105210005305863989F1809153058B5F809353053F
:105220002BC081E08093740527C0809147058931A8
:1052300019F18091470520915C0590E0019630E0DE
:1052400082179307CCF4809147058F5F80934705C1
:1052500013C080915C058E3179F080915C058F5F81
:1052600080935C0509C0809146058A3029F08091C1
:1052700046058F5F809346050E94D82514C0809113
:105280001504873039F460915F0581E070E00E9479
:10529000A31D09C080911504823029F48091200556
:1052A000806180932005809121058D7F8093210569
:1052B0008091210582FFEEC08091200583FFC9C047
:1052C00080912305873009F471C0883088F48330D9
:1052D00009F440C0843028F4813031F1823078F50F
:1052E00020C0853009F44CC0863008F054C03DC061
:1052F0008B3009F477C08C3038F4893009F46CC0F5
:105300008A3008F06CC05DC08D3009F478C08D30F3
:1053100008F472C08E3009F47CC08F3009F096C05A
:105320008CC01092710592C080915F05813009F4A4
:105330008DC080915F05815080935F0587C080910B
:105340005E05813009F482C080915E0581508093B2
:105350005E057CC080915D05813009F477C0809145
:105360005D05815080935D0571C080916605853033
:1053700009F46CC08091660581508093660566C013
:1053800080916005843609F461C080916005855084
:10539000809360055BC080915805883209F456C03F
:1053A0008091580581508093580550C080916C05BC
:1053B0008F3009F44BC080916C05815080936C054F
:1053C00045C080916705843109F440C0809167052C
:1053D0008550809367053AC01092650537C01092DA
:1053E000760534C080915305803581F18091530555
:1053F0008550809353052AC01092740527C0809170
:105400004705853019F18091470581508093470504
:105410001DC080915C058630C9F0809147052091C0
:105420005C0590E0019630E0821793077CF4809150
:105430005C05815080935C0509C0809146058130F0
:1054400029F0809146058150809346050E94D82519
:105450001CC080911504873039F460915F0580E0AD
:1054600070E00E94A31D11C080911504823021F4C8
:1054700080912005806207C080911504863029F450
:1054800080912005806480932005809121058B7F89
:10549000809321050895CF92DF92EF92FF920F93B0
:1054A0001F93DF93CF93CDB7DEB72A970FB6F8944B
:1054B000DEBF0FBECDBF6A01790124E630E0AC014A
:1054C000429FC001439F900D529F900D11240E9456
:1054D000EC359B01CB0164E670E00E94EC3566235D
:1054E00019F4E0E010E004C0605D6983E1E011E0E0
:1054F000C90164E670E00E94EC35082F492F6AE08C
:1055000070E00E94EC35662331F0FE01E10FF11DE1
:10551000605D618307C0E13031F4FE01E10FF11DF0
:1055200080E381831F5F9E012F5F3F4FF901E10FF1
:10553000F11D802F942F6AE070E00E94EC35805DB1
:105540008083812F8F5FF901E80FF11D95E2908331
:105550008F5FF901E80FF11D1082C901B601A701A3
:105560000E94BD1C6FE371E0A70120E230E0E20E73
:10557000F31E970100E010E00E94DA1C2A960FB695
:10558000F894DEBF0FBECDBFCF91DF911F910F9179
:10559000FF90EF90DF90CF900895CF92DF92EF923F
:1055A000FF920F931F93DF93CF93CDB7DEB72A9768
:1055B0000FB6F894DEBF0FBECDBF6C018B012091FA
:1055C00026053091270580912505813019F181301C
:1055D00080F0823051F0833021F020E0CE0101963E
:1055E0007EC020E0CE0101966DC020E0CE01019684
:1055F0005CC020E0CE01019604C0A80FB91FEC9357
:105600002F5FA22FB0E0FD01EA55FC4FE081EE23B1
:10561000A1F76DC0C90164E670E00E94EC35662315
:1056200019F4E0E040E004C0605D6983E1E041E03E
:10563000C90164E670E00E94EC35F82EE92E6AE0BC
:1056400070E00E94EC35662331F0FE01E40FF11D9D
:10565000605D618307C0E13031F4FE01E40FF11DAC
:1056600080E381834F5F9E012F5F3F4FF901E40F7D
:10567000F11D8F2D9E2D6AE070E00E94EC35805D5B
:105680008083942F9F5FF901E90FF11D80E68083ED
:105690009F5F290F311D83E4F9018083292F2F5F3C
:1056A00026C0A80FB91FEC932F5FA22FB0E0FD0119
:1056B000E655FC4FE081EE23A1F719C0A80FB91FF2
:1056C000EC932F5FA22FB0E0FD01E055FC4FE0818D
:1056D000EE23A1F70CC0A80FB91FEC932F5FA22FE8
:1056E000B0E0FD01EB54FC4FE081EE23A1F7CE01C9
:1056F0000196FC01E20FF11D1082B601A8010E9483
:10570000BD1C6FE371E0A801005E1F4F980100E02F
:1057100010E00E94DA1C2A960FB6F894DEBF0FBE86
:10572000CDBFCF91DF911F910F91FF90EF90DF9050
:10573000CF9008956F927F928F929F92AF92BF9277
:10574000CF92DF92FF920F931F93DF93CF93CDB74A
:10575000DEB72A970FB6F894DEBF0FBECDBF3B0170
:105760004A01823001F1833018F4813029F410C0ED
:10577000833021F1843069F110E00F2EF0E0AF2E7C
:10578000F0E0BF2EF0E0CF2EF0E0DF2EF02D2BC0AA
:1057900010915B05A0905405B0905505C09056053A
:1057A000D090570520C010917505A0906105B0906C
:1057B0006205C0906305D090640515C01091730513
:1057C000A0906D05B0906E05C0906F05D0907005EB
:1057D0000AC010917205A0906805B0906905C0904C
:1057E0006A05D0906B05C601B50120E030E040E0CD
:1057F00050E00E94413287FD02C080E005C0D7FA28
:10580000D094D7F8D09481E0113021F020E0CE017F
:10581000019677C0882311F4FF2404C08DE28983A8
:10582000FF24F394C601B5010E94FF32DC01CB01D5
:10583000482F64E60E94E035882311F420E007C079
:10584000FE01EF0DF11D805D8183F39421E0842F33
:1058500064E60E94E035392F892F6AE00E94E03526
:10586000882329F0FE01EF0DF11D805D06C0213077
:1058700031F4FE01EF0DF11D80E38183F3948E017D
:105880000F5F1F4FF801EF0DF11D832F6AE00E949B
:10589000E035905D9083F394F801EF0DF11D8EE2F9
:1058A0008083F394642F70E0882777FD8095982F8C
:1058B0000E94A1329B01AC01C601B5010E94B93022
:1058C0006801CF0CD11C20E030E040E251E40E949E
:1058D00017310E94FF32605DF6016083F394F80196
:1058E000EF0DF11D80E68083F3940F0D111D83E40D
:1058F000F80180832F2D2F5F0CC0A80FB91FEC93E8
:105900002F5FA22FB0E0FD01E655FC4FE081EE23B2
:10591000A1F7CE010196FC01E20FF11D1082B30147
:10592000A4010E94BD1C6FE371E0A40120E230E0FD
:10593000820E931E940100E010E00E94DA1C2A9669
:105940000FB6F894DEBF0FBECDBFCF91DF911F9190
:105950000F91FF90DF90CF90BF90AF909F908F906E
:105960007F906F9008950F931F930091690010919D
:105970006A0020916B0030916C0040916D00509155
:105980006E0060916F0070917000809171000E94B4
:105990002A1C8FEF9FEF0E944C1B81E068EC70E0A7
:1059A00045E050E00E949A2B82E068EC70E045E20E
:1059B00050E00E949A2B83E068EC70E045E650E0EE
:1059C0000E949A2B84E068EC70E045E850E00E9469
:1059D0009A2B88EC90E065EC70E00E94CD2A8091D3
:1059E000290590912A056AEF70E048EC50E025E027
:1059F00031E00E944B2A1F910F9108950F931F933E
:105A00000091690010916A0020916B0030916C0048
:105A100040916D0050916E0060916F007091700028
:105A2000809171000E942A1C8FEF9FEF0E944C1BF7
:105A300080E090E06FE371E040E050E02BE231E085
:105A400000E010E00E94DA1C8BEB93E065E070E070
:105A500045E050E00E94BD1C83EC93E065E070E0FF
:105A600045E250E00E94BD1C8DEC93E065E070E0E3
:105A700045E650E00E94BD1C86ED93E065E070E0D5
:105A800045E850E00E94BD1C80EE93E065E070E0C8
:105A900045EC50E00E94BD1C8AEE93E065E070E0AA
:105AA00045E051E00E94BD1C1F910F910895609147
:105AB000710580E090E00E943F3660915F0581E0D3
:105AC00090E00E943F3660915E0582E090E00E9487
:105AD0003F3660915D0583E090E00E943F36609123
