:100000000C9434000C9446000C9446000C9446006A
:100010000C9446000C9446000C9446000C94460048
:100020000C9446000C9446000C9446000C94460038
:100030000C9446000C9446000C9446000C94460028
:100040000C9446000C9446000C9446000C94460018
:100050000C9446000C9446000C9446000C94460008
:100060000C9446000C94460011241FBECFEFD8E03C
:10007000DEBFCDBF11E0A0E0B1E001C01D92A0380D
:10008000B107E1F70E947B000C9494020C944800A5
:1000900008958091C00085FFFCCF81E48093C60065
:1000A0008091C00085FFFCCF86E58093C6008091DB
:1000B000C00085FFFCCF82E58093C6008091C00020
:1000C00085FFFCCF82E48093C6008091C00085FF4D
:1000D000FCCF8FE48093C6008091C00085FFFCCFE9
:1000E0008FE48093C6008091C00085FFFCCF84E53B
:1000F0008093C60008952F923F924F925F926F9225
:100100007F928F929F92AF92BF92CF92DF92EF92A7
:10011000FF920F931F93CF93DF93F894A89588E1F4
:100120000FB6F89480936000109260000FBE10929A
:10013000C50098E09093C4008093C10086E480934A
:10014000C20000E010E0EE24FF24C0E4DCE980916E
:10015000C00087FF04C08091C600833561F061E074
:100160000C32160710F0F70109950F5F1F4FCE01F3
:100170000197F1F7ECCF0E9449005524AA24BB2433
:10018000ADE0CA2EF1E14F2EE8E12E2E312C809108
:10019000C00087FFFCCF9091C600913631F480916A
:1001A000C00085FFFCCF89E59BC19134B9F48091F3
:1001B000C00087FFFCCF2091C6008091C00087FF60
:1001C000FCCF9091C6008091C00085FFFCCF722EBD
:1001D0006624A92EBB24A628B72856C1923699F4C6
:1001E0008091C00085FFFCCFE9E5E093C6008091D7
:1001F000C00085FFFCCF1092C6008091C00085FF33
:10020000FCCFF0E813C1923409F07BC08091C000AC
:1002100087FFFCCF8091C6008091C00087FFFCCF94
:10022000D090C6008091C00087FFFCCF2091C6000F
:1002300090E0E0E0F1E09D1510F08FEF06C08091B6
:10024000C00087FFFCCF8091C60081939F5F9038EC
:1002500091F763E7561609F04FC0263409F033C012
:10026000750100E010E0EE0CFF1C001F111FA8013B
:100270009701A0E0B1E08C9190E011969C901197CD
:10028000882488299929129661E0F9010C0160936C
:100290005700E89511242E5F3F4F4F4F5F4F8EEF71
:1002A000D80E49F765E0F70160935700E89507B667
:1002B00000FCFDCF40925700E8955695479537953D
:1002C0002795590114C0253491F4FD2C8501C0E017
:1002D000D1E06991C8010E9486020F5F1F4FFA9416
:1002E000C1F7DA948D2D90E00196A80EB91E809189
:1002F000C00085FFFCCFC8C08091C00085FFFCCF47
:10030000A5C0973609F051C08091C00087FFFCCF8F
:100310008091C6008091C00087FFFCCFE090C600AE
:100320008091C00087FFFCCF8091C600863419F50C
:10033000950140E050E0220F331F441F551FF90183
:10034000659174918091C00085FFFCCF6093C600D9
:100350008091C00085FFFCCF7093C6002E5F3F4F99
:100360004F4F5F4F8EEFE80E51F7569547953795F3
:10037000279559010CCF853409F009CFFE2C850152
:10038000C8010E947E02982F8091C00085FFFCCF9B
:100390009093C6000F5F1F4FFA9491F7EA948E2D49
:1003A00090E00196A80EB91EF2CE9536D1F4E3E79F
:1003B0005E1691F4E0E0F0E063E060935700E895AA
:1003C00007B600FCFDCFE058FF4F8CE7E030F807A0
:1003D00099F740925700E8958091C00085FFFCCFC7
:1003E00053C0953471F4ECE00FB6F894A8952092C0
:1003F00060000FBEE09360008091C00085FFFCCFDD
:1004000043C0903529F48091C00085FFFCCF3CC0EB
:100410009C3429F48091C00085FFFCCF35C0903713
:1004200041F48091C00085FFFCCFF3E5F093C60056
:10043000AECE943771F48091C00085FFFCCF63E7A6
:100440006093C6008091C00085FFFCCF1092C6006B
:100450009ECE892F8857823058F48091C00087FF44
:10046000FCCF8091C6008091C00085FFFCCF0CC0FE
:10047000943569F48091C00087FFFCCF5090C6008E
:100480008091C00085FFFCCFC092C60080CE93351E
:1004900019F40E9449007BCE963569F48091C00022
:1004A00085FFFCCF80E38093C6008091C00085FF6C
:1004B000FCCFE8E320C09337B1F48091C00085FF02
:1004C000FCCFFFE0F093C6008091C00085FFFCCF19
:1004D00065E96093C6008091C00085FFFCCF8EE186
:1004E0008093C60054CE9B3109F451CE8091C00058
:1004F00085FFFCCFEFE3E093C60049CEF999FECF2C
:1005000092BD81BDF89A992780B50895262FF99953
:10051000FECF1FBA92BD81BD20BD0FB6F894FA9AE6
:0C052000F99A0FBE01960895F894FFCFE1
:00000001FF
